:020000040800F2
:10000000280500201D2B0008CD290008CF29000855
:10001000D1290008D3290008D529000800000000D4
:10002000000000000000000000000000D7290008C8
:10003000D929000800000000DB290008DD2900089C
:10004000692B00086D2B0008712B0008752B000828
:10005000792B00087D2B000829190008812B000846
:10006000852B0008892B00088D2B0008912B000898
:10007000952B0008992B00089D2B0008A12B000848
:10008000A52B0008A92B0008AD2B0008B12B0008F8
:10009000B52B0008B92B0008BD2B0008C12B0008A8
:1000A00000000000C52B0008C92B0008CD2B00085C
:1000B000D12B0008D52B0008D92B0008DD2B000818
:1000C000E12B0008E52B0008E92B0008ED2B0008C8
:1000D000F12B0008F52B0008E5290008F92B000892
:1000E00041190008FD2B0008012C0008052C000810
:1000F000092C00082DE9FE4F0400002C01D101203D
:1001000081E2DFF80898D9F8005015F00C05D9F80D
:10011000006016F480362078C00761D5082D04D021
:100120000C2D0CD1B6F5803F09D1DFF8DC07006853
:10013000800355D56068002852D1012063E26068D1
:10014000012806D1DFF8C007016851F48031016051
:1001500025E0606800280AD1DFF8AC07016831F4B7
:1001600080310160016831F48021016017E060682E
:1001700005280AD1DFF89007016851F48021016059
:10018000016851F48031016009E0DFF87C07016803
:1001900031F480310160016831F4802101606068D0
:1001A00000280ED000F0D2FB0700DFF85C070068E3
:1001B000800315D400F0CAFBC01B6528F5D30320CB
:1001C00021E200F0C3FB0700DFF83C070068800372
:1001D00006D500F0BBFBC01B6528F5D3032012E257
:1001E000207880074CD5042D03D00C2D15D1002E7E
:1001F00013D1DFF814070068800704D5E0680128F0
:1002000001D00120FFE1DFF8FC06016831F4F8516C
:10021000226951EA0221016032E0E06800281CD026
:100220000120DFF8FC16086000F090FB0700DFF803
:10023000D8060068800706D400F088FBC01B03289E
:10024000F5D30320DFE1DFF8BC06016831F4F85193
:10025000226951EA0221016012E00020DFF8C01695
:10026000086000F073FB0700DFF89C060068800759
:1002700006D500F06BFBC01B0328F5D30320C2E1B9
:100280002078C00640F19880002D5ED1DFF8780616
:100290000068800504D5A069002801D10120B2E1E1
:1002A000DFF86086D8F8000010F46040216A8842C8
:1002B00016D2206A00F0E2FA002801D00120A2E163
:1002C000D8F8001031F46041206A0143C8F80010EA
:1002D000E069D8F8001060F31F61C8F8001015E05D
:1002E000D8F8001031F46041206A0143C8F80010CA
:1002F000E069D8F8001060F31F61C8F80010206AA8
:1003000000F0BCFA002801D001207CE10120216A24
:10031000490B491C8840C003DFF80816D9F80020B3
:10032000C2F30312895CC840DFF8E8150860DFF803
:10033000E805006800F010FB8DF800009DF8000053
:10034000002839D09DF800005DE1A069002820D088
:100350000120DFF8D415086000F0F8FA0700DFF894
:10036000A8050068800506D400F0F0FAC01B032839
:10037000F5D3032047E1DFF88C150A6832F46042B8
:10038000206A02430A60E0690A6860F31F620A603B
:1003900012E00020DFF89015086000F0D7FA07009F
:1003A000DFF864050068800506D500F0CFFAC01BB1
:1003B0000328F5D3032026E12078000728D56069BB
:1003C000002812D00120DFF86415086000F0BEFAA2
:1003D0000700DFF848050068800719D400F0B6FA76
:1003E000C01B0328F5D303200DE10020DFF83C15E6
:1003F000086000F0ABFA0700DFF82005006880070E
:1004000006D500F0A3FAC01B0328F5D30320FAE0B9
:100410002078400740F18F805FF00008DFF810A5DA
:10042000DAF80000C0000DD4DAF8000050F0805077
:10043000CAF80000DAF8000010F08050019001982E
:1004400001208046DFF8ECB4DBF80000C00513D4CF
:10045000DBF8000050F48070CBF8000000F076FA72
:100460000700DBF80000C00506D400F06FFAC01BDF
:100470006528F6D30320C6E0A068012806D1DFF87E
:100480009C04016851F48071016025E0A068002897
:100490000AD1DFF88804016831F4807101600168D5
:1004A00031F48061016017E0A06805280AD1DFF807
:1004B0006C04016851F480610160016851F480713D
:1004C000016009E0DFF85404016831F480710160D3
:1004D000016831F480610160A068002810D000F04C
:1004E00035FA0700DFF834040068800519D400F0FD
:1004F0002DFAC01B41F289318842F3D3032082E0F8
:1005000000F024FA0700DFF814040068800508D51D
:1005100000F01CFAC01B41F289318842F3D303205A
:1005200071E04046C0B2012805D1DAF8000030F091
:100530008050CAF80000606A002863D00C2D48D0B3
:10054000606A022832D1DFF8F0B30020CBF8000057
:1005500000F0FCF98046DFF8B0A3DAF80000800173
:1005600007D500F0F3F9B0EB08000328F3D303201C
:1005700049E0D9F8001031F47D01A06A0143E06A36
:100580000143206B0143C9F800100120CBF80000A3
:1005900000F0DCF90700DAF80000800132D400F046
:1005A000D5F9C01B0328F6D303202CE00020DFF888
:1005B0008813086000F0CAF90700DFF84C030068F0
:1005C00080011FD500F0C2F9C01B0328F5D303201A
:1005D00019E0606A012801D1012014E0D9F8000077
:1005E000060016F48030A16A884209D116F4701012
:1005F000E16A884204D116F44000216B884201D0A0
:10060000012000E00020BDE8FE8F2DE9F04104004C
:100610000D00002C01D10120D8E0DFF820733868EC
:1006200010F00100A84211D2012D03D1386850F01A
:100630000400386038684008400028433860386853
:1006400010F00100A84201D00120BFE0207880070F
:1006500007D5DFF8B8120A6832F0F002A06802434A
:100660000A602078C00775D56068022806D1DFF8D7
:100670009802006880031CD40120A7E0606803286A
:1006800006D1DFF884020068800112D401209DE0C9
:100690006068012806D1DFF870020068800708D47E
:1006A000012093E0DFF860020068800501D401209A
:1006B0008CE0DFF85882D8F800108908890060685B
:1006C0000143C8F8001000F041F9060060680228F4
:1006D0000ED1D8F8000010F00C0008283AD000F035
:1006E00035F9801B41F289318842F2D303206DE055
:1006F000606803280ED1D8F8000010F00C000C2818
:1007000028D000F023F9801B41F289318842F2D3CE
:1007100003205BE0606801280ED1D8F8000010F0DB
:100720000C00042816D000F011F9801B41F2893129
:100730008842F2D3032049E0D8F8000010F00C0FF3
:1007400008D000F003F9801B41F289318842F3D3CD
:1007500003203BE0386810F00100854211D2012DE2
:1007600003D1386850F00400386038684008400011
:1007700028433860386810F00100A84201D00120F9
:1007800024E02078400706D560490A6832F4E06228
:10079000E06802430A602078000707D55B480168DB
:1007A00031F46051226951EAC201016000F010F891
:1007B0005C49564A1268C2F30312895CC840554925
:1007C00008605548006800F0C7F8C0B2BDE8F08185
:1007D0002DE9F0414D48066816F00C01042904D0BB
:1007E000082904D00C2904D022E049482BE05448C1
:1007F00029E05449C6F38342895C0F00C6F3815156
:10080000491C0C000068C00308D54D48A0FB070137
:100810002200002300F0D0F8050007E03C48A0FBD0
:1008200007012200002300F0C7F8050028000AE0B5
:1008300034480068C0F342308046012118F10100BD
:1008400011FA00F0C003BDE8F0813248006870473B
:1008500080B5FFF7FAFF3C492C4A1268C2F3022226
:10086000895CC84002BD80B5FFF7EFFF3649274AD3
:100870001268C2F3C222895CC84002BD18B40100EC
:1008800000232248006810F0F00F23D128480468A4
:10089000E40005D52748006810F4C050020011E0BC
:1008A000046854F080540460046814F08054009488
:1008B000009C204C246814F4C0542200046834F0D6
:1008C00080540460B2F5C05F04D1B1F5404F01D14E
:1008D00001200300012B04D11848046854F00404DB
:1008E000046016480468640864001C4304600068DF
:1008F00010F00100984201D0012000E0002012BC5D
:1009000070470000043802400038024008380240B6
:100910000024F4006C000020640000203438024001
:10092000000047420C2B0008200047428006474247
:10093000243802400070004060004742003C024002
:1009400000366E013C2B0008602B0008014800684F
:10095000704700BF1801002038B504000025134976
:10096000086800281DD04FF47A700968B0FBF1F0D8
:100970000F490968B1FBF0F000F0CBF900280DD168
:10098000102C08D2002221005FF0FF3000F0A5F902
:100990000848046007E00120050004E0012005008C
:1009A00001E0012005002800C0B232BD680000202F
:1009B0006C00002064000020BBBBE1B1B2F5803FB9
:1009C00080F07E80022A1ED98C46B1FBF2F102FB38
:1009D00011C31B0443EA1043B3FBF2FC02FB1C33BC
:1009E00080B240EA0343B3FBF2F002FB103240EA6C
:1009F0000C4000237047022A05D98446B0FBF2F070
:100A000002FB10C270474AB105D100F0010249084B
:100A10005FEA3000704700220023704700F090B971
:100A20000B000200002100207047904271EB030C84
:100A3000F6D3B3F5803F2FD2F0B5B3FA83F7B1FA0E
:100A400081F4A7F10F0E3D1B5340CEF1200602FAB0
:100A50000EF2F3415340B5F10F0746D80F3C2C443A
:100A60004140C4F12006A040F1414140B1FBF3F602
:100A700003FB1611A2FB0645001BA94102D2761EFC
:100A80008018594180EA010221FA0EF362FA0EF24F
:100A900000215A403046F0BD30B4B1FBF3FC03FBFB
:100AA0001C11A2FB0C45001BA94103D2ACF1010CA7
:100AB0008018594130BC02460B4660460021704701
:100AC000B2F1807F65D3F0B5B2FA82F7B1FA81F462
:100AD000C7F10F063D1B22FA06F307F1110EF24192
:100AE00020355A40B5F10F07B8D94140C4F120066E
:100AF000A040F1414140B1FBF3FC03FB1C11A2FB00
:100B00000C45001BA94103D2BCF1010C80185941CE
:100B10000F2F12D30F3FC90341EA5041B1FBF3F647
:100B200003FB1611A2FB0645D4EBC030A94102D24B
:100B3000761E8018594146EACC3C07B34140C7F1C4
:100B40002006B840F1414140B1FBF3F603FB16111A
:100B5000A2FB0645001BA94102D2761E801859410E
:100B600080EA010221FA0EF3C7F1200462FA0EF2C4
:100B70000CFA07F05A402CFA04F13043F0BD80EA39
:100B8000010221FA0EF3002162FA0EF260465A4089
:100B9000F0BD8C46B1FBF2F102FB11C31B0243EA2C
:100BA0001063B3FBF2FC02FB1C331B024CEA002077
:100BB00043EA1063B3FBF2FC02FB1C331B024CEA5A
:100BC000002043EA1063B3FBF2FC02FB1C331B0260
:100BD0004CEA002043EA1063B3FBF2FC02FB1C3238
:100BE0004CEA00200023704710B410F00703DFF830
:100BF000304122684FF6FF010A4052EA0322DFF833
:100C000024110A43226010BC704745480068C0F3B5
:100C100002207047010049B2002909D4012210F0D6
:100C20001F018A40404903005BB25B0941F8232061
:100C3000704710B4020052B2002A05D40A013B4B9F
:100C4000040064B21A5508E00A01394B040064B28A
:100C500014F00F04234403F8042C10BC704770B444
:100C6000030013F00704D4F10700052801D3042082
:100C700001E0D4F10700251D072D01D2002500E079
:100C8000E51E012616FA00F0401E0140A94016FAA2
:100C900005F56D1E2A401143080070BC704710B561
:100CA0000400601EB0F1807F01D301200EE0601EC1
:100CB000204908600F215FF0FF30FFF7BAFF0020E6
:100CC0001D49086007201D490860002010BD10B5AF
:100CD00004002000FFF788FF10BD2DE9F04104005B
:100CE0000D0016000027FFF790FF80463200290014
:100CF0004046FFF7B4FF0100200040B2FFF799FF24
:100D0000BDE8F08110B50400200040B2FFF782FF7B
:100D100010BD10B504002000FFF7C1FF10BD00009A
:100D20000CED00E00000FA0500E100E000E400E066
:100D300018ED00E014E000E018E000E010E000E052
:100D4000704730B5016884684218416802EB51036E
:100D5000C90703D54C4401E0491C08D19A4218BF89
:100D600012F9011B01D10C3030BD12F8015B0029D2
:100D700004F8015BF0D4491EF7D5EFE710B5040085
:100D8000002C01D1012033E0A0690028FFD194F8A4
:100D90003D00002805D1002084F83C00200000F030
:100DA00023FC242084F83D002068C06830F4005003
:100DB0002168C860200000F041FB2068006930F421
:100DC0009040216808612068406930F02A0021685D
:100DD00048612068C06850F400502168C860002055
:100DE0002064202084F83D00202084F83E0000206C
:100DF00010BD2DE9FC4706000D00170098460024A1
:100E000096F83D0020285DD1002D03D0380080B237
:100E1000002801D1012056E096F83C00012801D1BC
:100E2000022050E0012086F83C00002030642120A0
:100E300086F83D00FFF78AFD8146B784F784B068E5
:100E4000B0F5805F05D13069002802D10024AA46A0
:100E500002E02C005FF0000A002086F83C00F08CD5
:100E600000281ED0CDF800804B46002280213000A3
:100E700000F0B1F9002801D0032024E0002C08D1B3
:100E8000BAF80000C005C00D316848601AF1020AC6
:100E900003E0207831684860641CF08C401EF084C8
:100EA000DDE7CDF800804B4600224021300000F005
:100EB00092F9002801D0032005E0202086F83D00AB
:100EC000002000E00220BDE8F68770B505000C00A8
:100ED000160095F83E00202819D1002C03D03000D0
:100EE00080B2002801D1012012E095F83C000128D1
:100EF00001D102200CE0012085F83C00002028638D
:100F0000320092B22100280000F09CF900E002209B
:100F100070BD10B504002068C06830F4907021687E
:100F2000C860206840694008400021684861206B23
:100F3000012805D12068C06830F010002168C86021
:100F400020684069400621D52068406930F04000A3
:100F500021684861A06B00280DD00FF27D30A16B95
:100F60004863A06B00F008FC002819D0A06BA16BAF
:100F7000496B884714E00020E085202084F83E007B
:100F800000202063200000F026FC09E00020E0851E
:100F9000202084F83E0000202063200000F01BFC8D
:100FA000002010BD2DE9FC47060030680768306856
:100FB000D0F80C803068D0F814900020002517F08D
:100FC0000F04002C08D1B80606D55FEA886003D567
:100FD000300000F0C2F9FCE0002C6FD05FEAC9706D
:100FE00002D418F4907F69D03800C00706D55FEAB4
:100FF000C85003D5306C50F001003064780706D536
:101000004846C00703D5306C50F002003064B80782
:1010100006D54846C00703D5306C50F00400306454
:10102000380709D55FEA886002D44846C00703D56F
:10103000306C50F008003064306C00283DD0B806A9
:1010400005D55FEA886002D5300000F086F9306887
:101050004069800910F001000500306C000701D4E0
:10106000002D25D0300000F00FF9306840694006AF
:101070001AD53068406930F0400031684861B06B83
:1010800000280DD00FF23920B16B4863B06B00F02F
:1010900073FB002811D0B06BB16B496B88470CE033
:1010A000300000F099FB08E0300000F095FB04E010
:1010B000300000F091FB002030648AE0306B0128A2
:1010C00075D1F80673D55FEAC86070D5002000902E
:1010D0003068006800903068406800900098306880
:1010E000406940063AD5B06B0068D0F804A050467D
:1010F00080B2002831D05046B18D80B288422CD2C7
:10110000A6F82EA0B06B806920281FD03068C06878
:1011100030F480703168C860306840694008400031
:10112000316848613068406930F04000316848619A
:10113000202086F83E00002030633068C06830F020
:1011400010003168C860B06B00F0ECFAB18DF08D22
:10115000091A89B2300000F040FB3AE0B08DB6F8D1
:101160002EA0B0EB0A0AF08D00281FD0504680B2A6
:1011700000281BD03068C06830F490703168C860B7
:10118000306840694008400031684861202086F896
:101190003E00002030633068C06830F010003168D5
:1011A000C860514689B2300000F017FB11E03806E4
:1011B00006D55FEA086003D5300000F09BF808E030
:1011C000F80606D55FEAC86003D5300000F044FA9F
:1011D000FFE7BDE8F3872DE9F04105000E009046DA
:1011E0001F00069C286800683040B04201D10120F1
:1011F00000E000204146C9B2884220D114F1010F1D
:10120000F0D0002C04D0FFF7A1FBC01B8442E9D230
:101210002868C06830F4D0702968C86028684069C0
:101220004008400029684861202085F83D002020C2
:1012300085F83E00002085F83C00032000E00020F7
:10124000BDE8F08110B4030099629A85DA85002028
:101250001864222083F83E00002083F83C001868C0
:10126000C06850F480701C68E0601868406950F0F5
:1012700001001C6860611868C06850F020001C689C
:10128000E060002010BC70470168C96831F49071BB
:101290000268D160016849694908490002685161E2
:1012A000016B012905D10168C96831F0100102689C
:1012B000D160202180F83E100021016370470000BA
:1012C00038B50400656A0020E8850020E88428001D
:1012D00000F082FA31BD000038B50400656A0020D4
:1012E000E885202085F83E0000202863280000F0D3
:1012F00072FA31BD010091F83D0021282BD1886898
:10130000B0F5805F0DD1086900280AD1086A020093
:101310001088C005C00D0B685860086A801C086200
:1013200005E0086A431C0B6200780B685860C88CA3
:10133000401EC88480B200280BD10868C06830F015
:1013400080000B68D8600868C06850F040000B68E7
:10135000D860002000E0022070477CB5040094F8BB
:101360003E00222868D1A068B0F5805F0DD12069C9
:1013700000280AD10025A66A20684068C005C00D73
:101380003080A06A801CA06217E0A56A0026A068D1
:10139000B0F5805F05D0A068002806D1206900283C
:1013A00003D120684068287004E02068406810F08D
:1013B0007F002870A06A401CA062E08D401EE0857E
:1013C00080B2002836D12068C06830F02000216843
:1013D000C8602068C06830F480702168C8602068E8
:1013E00040694008400021684861202084F83E00A0
:1013F000206B012819D1002020632068C06830F0DC
:1014000010002168C86020680068C00608D5002068
:101410000090206800680090206840680090009864
:10142000A18D200000F0D9F902E0200000F03FF982
:10143000002002E0002000E0022076BDF8B50400A4
:101440002068016931F44051E0680143206801617E
:10145000A5682069054360690543E0690543206884
:10146000C1685248014029432068C1602068416931
:1014700031F44071A06901432068416120684C4902
:10148000884202D1FFF7EFF901E0FFF7E1F9E169E6
:10149000B1F5004F45D17FF06301192202FB00F343
:1014A00066687600B3FBF6F36426B3FBF6F302FB43
:1014B00000F667687F00B6FBF7F602FB00F7D4F88A
:1014C00004C05FEA4C0CB7FBFCF75FF0640CB7FBA1
:1014D000FCF701FB0766F60032366427B6FBF7F629
:1014E000760016F4F87616EB031602FB00F3676835
:1014F0007F00B3FBF7F302FB00F267687F00B2FBEB
:10150000F7F26427B2FBF7F201FB0231C900323176
:101510006422B1FBF2F111F007018E1921688E608F
:1015200043E07FF06301192202FB00F36668B60016
:10153000B3FBF6F36426B3FBF6F302FB00F6676831
:10154000BF00B6FBF7F602FB00F7D4F804C05FEA71
:101550008C0CB7FBFCF75FF0640CB7FBFCF701FBEE
:101560000766360132366427B6FBF7F616F0F0064A
:1015700016EB031602FB00F36768BF00B3FBF7F33B
:1015800002FB00F26768BF00B2FBF7F26427B2FB10
:10159000F7F201FB0231090132316422B1FBF2F1B1
:1015A00011F00F018E1921688E60F1BDF369FFFF04
:1015B0000038014080B55348534901605FF4E13180
:1015C0004160002181600021C160002101610C2186
:1015D0004161002181610021C161FFF7CFFB00283B
:1015E00001D000F0D1F901BD10B586B0040014227D
:1015F000002101A800F0CAF920684349884229D196
:101600004248016851F400310160006810F4003074
:10161000009000983E48016851F0010101600068A7
:1016200010F00100009000980C2001900220029020
:1016300000200390032004900720059001A935485D
:1016400000F0AEF9002200212620FFF746FB2620FD
:10165000FFF758FB06B010BD38B50400294DAC4269
:1016600024D12868C06830F010002968C860E08D77
:10167000D0F164002849087001202849087028002A
:10168000FFF747FC00200090286800680090286859
:101690004068009000982868C06850F010002968E1
:1016A000C86064221E492800FFF70FFC31BD38B521
:1016B0000400144DAC4222D12868C06830F01000FC
:1016C0002968C86064201449087001201349087013
:1016D0002800FFF71EFC002000902868006800909A
:1016E00028684068009000982868C06850F0100092
:1016F0002968C86064220A492800FFF7E6FB31BD6B
:1017000000000000D40000200044004024380240C3
:101710001C380240000002401E0100202101002070
:10172000000000200100002291F82100022806D0CC
:1017300004208863002081F8200001201BE0086855
:10174000006830F00E000B681860086800684008F8
:1017500040000B681860012091F8403013F01C0322
:101760009840CB6B5860012081F82100002081F85F
:1017700020001000C0B2704738B50400002594F86E
:101780002100022804D00420A063012005001FE0EE
:101790002068006830F00E0021680860206800684A
:1017A0004008400021680860012094F8401011F0C2
:1017B0001C018840E16B4860012084F82100002072
:1017C00084F82000606B002802D02000616B8847FD
:1017D0002800C0B232BD7047704770472DE9F04114
:1017E00000F0C8F900F063F800F0C4F900F05FF809
:1017F00000F0F7F9FFF7DEFE00F0F5FA00F025FB48
:1018000000F0FCF900F03AFA00F06DFA00F0A4FBE9
:1018100000F06DFD00F07AFD504C2068C06850F07B
:1018200010002168C8604E4D642229002000FFF797
:101830004CFB4C4E3078002806D04B4801782800ED
:1018400000F008FC00203070484E307800280FD09F
:1018500000F080FD070000F0EAFD0743FFB2002F13
:1018600004D141480178280000F0F4FB00203070DA
:101870003F4E30780028DCD03E4FDFF8FC804146F8
:10188000380000F040FC642398F8002092B2390040
:101890002000FFF7AEFA00F0C9FC00F0F8FC374872
:1018A000016851F48011016000203070C1E780B5FB
:1018B00092B03422002105A800F068F8142200211B
:1018C000684600F063F82E480121026861F3CC22DB
:1018D000026002200590012008901020099002204B
:1018E0000E9000200F905FF4802010905FF4800035
:1018F000119005A8FEF7FEFB002801D000F044F887
:101900000F200090032001900020029000200390FF
:101910000020049001216846FEF777FE002801D0E0
:1019200000F032F813B000BD01201649086000BF76
:1019300000BF00BF00BF00BF01200A490870704708
:101940004FF400400F49086000BF00BF00BF00BF58
:1019500000BF01200649087070470000D400002035
:10196000000000201F0100201E0100202101002096
:1019700020010020700000202201002018040240F5
:10198000007000401404014072B6FEE710B5044632
:1019900010460A460146204600F022FE204610BDB1
:1019A000F8B402000B000024002000251968E14073
:1019B000002900F0C68001261F6816FA04F10F40C6
:1019C0003800002800F0BB80197911F003010129CB
:1019D00004D0197911F00301022919D197685FF039
:1019E000030C61001CFA01FC37EA0C07D3F80CC0A9
:1019F00061001CFA01FC5CEA070797605168A64089
:101A0000B1435E68C6F30016A64031430D00556031
:101A1000197911F0030103290AD0D6680327610060
:101A20008F40BE439F6861008F403E433500D560C4
:101A3000197911F00301022916D12100C90802EB1E
:101A40008101096A0F26A70017F01C07BE40B143A9
:101A50001E69A70017F01C07BE4031430D0021008E
:101A6000C90802EB81010D621668032761008F40EF
:101A7000BE431F7917F0030761008F403E433500D6
:101A80001560596811F4403F59D02F490E6856F03F
:101A900001060E60096811F00101009100992B4EBA
:101AA0002100890856F821100F275FEA840C1CF0EA
:101AB0000C0C17FA0CF7B943254FBA4201D1002597
:101AC00014E0244DAA4201D101250FE0224DAA4283
:101AD00001D102250AE0214DAA4201D1032505E0EA
:101AE0001F4DAA4201D1042500E00525A70017F0EB
:101AF0000C07BD4029432500AD0846F82510194EB6
:101B0000356885435F68FF0300D505433560164E91
:101B1000316881435F68BF0300D501433160134DD5
:101B20002E6886435F68FF0200D506432E60104989
:101B30000D6885435F68BF0200D505430D60641CD6
:101B400034E7F1BC70470000203802400800014033
:101B5000000002400004024000080240000C024065
:101B60000010024000040140040401400804014048
:101B70000C04014010B500240320FFF7A8F8002052
:101B8000FEF7EAFE002802D00120040001E000F088
:101B90005BFD2000C0B210BD010049B2002909D48C
:101BA000012210F01F018A40654903005BB25B0906
:101BB00041F82320704710B4020052B2002A05D425
:101BC0000A01604B040064B21A5508E00A015E4B3A
:101BD000040064B214F00F04234403F8042C10BC76
:101BE000704781B05948016851F0010101600068F7
:101BF00010F001000090009801B070475348016850
:101C000051F0020101605248016831F01801016091
:101C1000016851F008010160016831F44071016010
:101C2000016851F4807101604A490A6852F010025B
:101C30000A60026832F00C020260026852F004028C
:101C400002600A6852F002020A600268920892007A
:101C50000260026852F0010202600A6852F001025A
:101C60000A60026832F440620260026852F48062E4
:101C70000260086850F400100860704780B536486C
:101C8000016851F001010160344801688908890048
:101C90000160016821F04041016031480168016044
:101CA0003048016851F0F001016048F201002E490E
:101CB0000A6802430A602D490A6802430A602C49F7
:101CC0000A681043086000210620FFF774FF002116
:101CD0002820FFF770FF0620FFF75EFF2820FFF7A0
:101CE0005BFF62B601BD1948016851F00101016056
:101CF0001A48016831F440310160016851F4003143
:101D000001601C48016831F440310160016851F400
:101D10004031016018480168090909010160016842
:101D200001601648016831F0E0410160016831F05E
:101D3000E0610160016851F080710160704700004E
:101D400000E100E000E400E018ED00E01C38024093
:101D50000004024018040240203802400000024003
:101D60000C0001401000014014040140080401402F
:101D700000040140080002402400024008380240EC
:101D800081B0002000900098B0F5807F03D00098CB
:101D9000401C0090F7E701B070470000010049B215
:101DA000002909D4012210F01F018A405C49030078
:101DB0005BB25B0941F82320704710B4020052B2B5
:101DC000002A05D40A01574B040064B21A5508E0F2
:101DD0000A01554B040064B214F00F04234403F8C5
:101DE000042C10BC70475148016851F0010101609A
:101DF0004F490A684F4802400A60086850F428407A
:101E000008604D4A13684D48034313604C4802680C
:101E100032F47F320260026852F47F3202600A6854
:101E200032F440720A600A6852F480720A600168F3
:101E300031F440710160016851F440710160414822
:101E4000016851F010010160704780B53E4801689B
:101E500051F4805101603D484FF44D7101600168BB
:101E600051F04001016000212320FFF7A6FF23204D
:101E7000FFF794FF01BD70B50400324D286850F49F
:101E800080102860FFF77CFF314801688907FBD587
:101E900030492200D2B20A6002689207FCD502687B
:101EA0001206FCD400220A600268D207FCD50A6838
:101EB0000268D207FCD50E68FFF762FF286850F071
:101EC00010002860FFF75CFF3000C0B270BD70B535
:101ED00006000C001B4D286850F480102860FFF7A6
:101EE0004FFF1B4801688907FBD51A493200D2B25F
:101EF00052F080020A6002689207FCD52200D2B23A
:101F00000A6001688907FCD501680906FCD4FFF75F
:101F100037FF286850F010002860FFF731FF70BDD0
:101F200000E100E000E400E018ED00E01C380240B1
:101F300000000240FF03FF3F200002400000505518
:101F400008000240180002402038024000300140E2
:101F5000083001400C30014010B500F04DF942202E
:101F6000FFF789FF122864D1DFF8C043206850F4DE
:101F700080302060FFF704FF206850F001002060EF
:101F800080210120FFF7A3FF00210E20FFF79FFF14
:101F900000210F20FFF79BFF23210C20FFF797FF65
:101FA00084214D20FFF793FF3B210B20FFF78FFF8C
:101FB000FF210920FFF78BFFD9210620FFF787FFBC
:101FC00000210720FFF783FF00210820FFF77FFF94
:101FD00081210120FFF77BFF87214D20FFF777FF4D
:101FE0003B210B20FFF773FF8F210920FFF76FFFC5
:101FF00088211D20FFF76BFFC0211E20FFF767FF20
:1020000004212620FFF763FF00214020FFF75FFF38
:1020100012213920FFF75BFF81210120FFF757FFD5
:1020200000210D20FFF753FF85210120FFF74FFF0F
:102030000FE0BE4C206850F480102060C82000F0F3
:1020400027FB206850F010002060C82000F020FB23
:10205000EFE710BD70B504000D0081210120FFF7EE
:1020600036FF12213920FFF732FF00210D20FFF744
:102070002EFF2900C9B22220FFF729FF00263000D9
:102080002900C0B2C9B2884207D23000C0B2215C78
:102090000020FFF71CFF761CF1E72900C9B22220BF
:1020A000FFF715FF83210120FFF711FF4FF4967012
:1020B00000F0EEFA1220FFF7DEFE082805D09B485C
:1020C000016851F400310160F4E708211220FFF7A4
:1020D000FEFE4FF4967000F0DBFA9448016851F070
:1020E0000201016081210120FFF7F1FE00210D2096
:1020F000FFF7EDFE85210120FFF7E9FE00210D200D
:10210000FFF7E5FE70BD7CB504000D0000208DF8E2
:1021100000009DF80000642809DA00209DF80010F6
:1021200060549DF80000401C8DF80000F1E781210B
:102130000120FFF7CCFE12213920FFF7C8FE002155
:102140000D20FFF7C4FE85210120FFF7C0FEC82047
:1021500000F09EFA1220FFF78EFE50211220FFF7AA
:10216000B6FE12213920FFF7B2FE704E306850F0F3
:10217000200030604FF4967000F08AFA306850F416
:10218000001030601320FFF776FE28701920FFF74B
:1021900072FE00261320FFF76EFE3100C9B28142A5
:1021A00007D20020FFF767FE3100C9B26054761CE9
:1021B000F0E71A20FFF75FFED0F19D005C49087040
:1021C0001920FFF758FEC0B280085A4908708121D3
:1021D0000120FFF77CFE00210D20FFF778FE85210E
:1021E0000120FFF774FE00214020FFF770FE002160
:1021F0000D20FFF76CFE73BD10B54F48016831F03C
:102200000C010160016851F0040101604B4C206831
:1022100050F400302060012000F03AFA206850F0BD
:10222000020020600A2000F033FA10BD18B585B016
:1022300068464349112200F03FFA3D4A694610784A
:10224000642390FBF3F03030087213780C7A303C42
:102250007FF0630000FB04334B72487A0A2390FB43
:10226000F3F03030487212780B7A9C2000FB032286
:102270004B7AF62000FB0322B2F13000887264230F
:10228000112269462F48FEF7B4FD06B010BD1FB5F8
:1022900068462D490E2200F00FFA26496A46087852
:1022A000642390FBF3F0303090710B789479303CDC
:1022B0007FF0630000FB0433D371D0790A2390FBD5
:1022C000F3F03030D071097893799C2000FB031132
:1022D000D279F62000FB0211B1F130008DF8080030
:1022E00064230E2269461748FEF783FD1FBD00B523
:1022F0008DB068461549312200F0DEF964233122A1
:1023000069461048FEF775FD0DB000BD80B58AB076
:1023100068460F49262200F0CFF964232622694639
:102320000848FEF766FD0BB000BD0000180402402F
:102330001C0100201D010020000002401800024086
:10234000D82A0008D4000020FC2A0008EC28000845
:10235000A429000818B5F1B068469249072200F098
:10236000ABF966A890492B2200F0A6F956A88F4930
:102370003E2200F0A1F945A88D49432200F09CF9C6
:102380003BA88C49252200F097F933A88A491E22E0
:1023900000F092F927A88949302200F09DF915A88C
:1023A0008749462200F088F902A88649492200F0B0
:1023B00083F96946844800F0D3F9002834D1834C6E
:1023C00064232B2266A92000FEF713FD64233E221E
:1023D00056A92000FEF70DFD6423432245A92000E5
:1023E000FEF707FD642325223BA92000FEF701FD2F
:1023F00064231E2233A92000FEF7FBFC6423302255
:1024000027A92000FEF7F5FC6423462215A9200029
:10241000FEF7EFFC6423492202A92000FEF7E9FC45
:1024200000F05FF8012000E0002072B010BD30B570
:1024300085B003A86649052200F03EF9624C03A965
:10244000200000F08DF9002805D1FFF750FF00F0C3
:1024500048F8012043E001A85E49D1E90023C0E922
:102460000023072201A9200000F083F9002835D1BC
:1024700000208DF8010000208DF800000DF1010210
:1024800014F10801E01D00F041F805006A4614F15E
:102490000D0114F10C0000F039F805421AD09DF836
:1024A00000109DF80100FFF712FD9DF80100FFF7F5
:1024B000E2FC9DF80010C0B288420BD1464C206867
:1024C00050F480302060C82000F0E2F8206850F01E
:1024D0000100206000F005F8012000E0002005B0B8
:1024E00030BD81B000208DF800009DF80000642808
:1024F0000ADA002034499DF8002088549DF8000035
:10250000401C8DF80000F0E701B0704770B5040082
:102510000D001600002030702078302806DB20786F
:102520003A2803DA2078000130700FE02078412843
:1025300008DB2078472805DA20780001B0F55C70C8
:10254000307003E000F020F800201CE028783028EC
:1025500008DB28783A2805DA3178287830380143C2
:1025600031700FE02878412808DB2878472805DA01
:102570003178287837380143317003E000F004F8EF
:10258000002000E0012070BDF8B5684613490D2217
:1025900000F092F864230D2269460C48FEF729FCEE
:1025A00005B000BD482B0008502900087428000819
:1025B000302800087C290008542A00082029000837
:1025C000E82700089C27000800000020D400002015
:1025D000502B0008582B000818040240EC2A000871
:1025E00062F30F2262F31F42401810F0030308D079
:1025F000C91A1FD3DB0748BF00F8012D28BF20F8F8
:10260000022D130030B414461546103928BF20E9B6
:102610003C00FAD8490728BF20E90C0048BF40F821
:10262000042D890028BF20F8022D48BF00F8012D95
:1026300030BC7047C91818BF00F8012DCB0728BF60
:1026400000F8012D7047000081B00F48016851F07B
:1026500000410160016811F00041009100990B49AF
:102660000A6852F001020A60096811F00101009144
:102670000099016851F080510160006810F08050AD
:102680000090009801B07047243802402038024082
:1026900070B50400FEF75AF90500260016F1010F87
:1026A00002D0044800688619FEF750F9401BB0427A
:1026B000FAD370BD6800002062B38B0708D0521EA9
:1026C00011F8013B00F8013B00F024808B07F6D1A4
:1026D000830740F0208000BF103A07D330B4B1E840
:1026E0003810103AA0E83810F9D230BC530724BF94
:1026F000B1E80810A0E8081044BF51F8043B40F8C6
:10270000043BD20724BF31F8022B20F8022B44BF30
:102710000B7803707047121F17D35B0009D151F873
:10272000043B20F8023B1B0C121F20F8023BF6D2A0
:102730000BE051F8043B00F8013B1B0A20F8023B78
:102740001B0C121F00F8013BF3D238BF121D521EA2
:1027500024BF11F8013B00F8013BF8D87047000096
:1027600010F8012B11F8013B0AB19A42F8D0D01AA7
:1027700070478AB10B7890F800C09C4506D110F8DC
:10278000013B4BB1491C521EF4D105E002D24FF07F
:10279000FF30704701207047002070474D7367205D
:1027A000302074657874202D2073656E64206D650B
:1027B000737361676520616C6C20617661696C611F
:1027C000626C65206C6F72612E204578616D706C53
:1027D000653A206D736720307830302048656C6C26
:1027E0006F210D0A000000004D73672049442074DA
:1027F000657874202D2073656E64206D6573736138
:10280000676520746172676574204944206C6F723B
:10281000612E204578616D706C653A206D7367207C
:10282000307831382048656C6C6F210D0A0000004B
:102830002F52656164202D20526561642066726F9D
:102840006D20726567283078414229206461746187
:10285000202830783535292E204578616D706C65DB
:102860003A2F526561642030784142203078353506
:102870000D0A00002F536574202D205365742069C4
:102880006E20726567283078414229206461746146
:10289000202830783535292E204578616D706C659B
:1028A0003A2F536574203078414220307835350D09
:1028B0000A00000030B4002512E050F8042BD307C2
:1028C00044BF4A44521E091F042942F8045BFAD24D
:1028D00013468C0744BF15809B1CC90748BF1D7059
:1028E00050F8041B0029E8D130BC70474669726D6E
:1028F00077617265207665722E20302E312E33205E
:102900002830312D30322D32303233292062792077
:10291000442E5A61726574736B690D0A00000000E1
:102920002F57686F202D20746F20676574206C69A5
:1029300073742020494420617661696C61626C6522
:10294000206C6F7261206F6E6C696E65200D0A00DD
:102950000D0A2D2D2D2D2D2D2D2D2D2D2D2D2D2DEA
:102960002D2D2D2D2D2D0D0A4C495354204F462031
:10297000434F4D4D414E44530D0A00002F436F6E9F
:10298000666967202D2073686F77206375727265A2
:102990006E74206C6F726120636F6E6669670D0ADA
:1029A00000000000577269746520222F68656C7002
:1029B0002220666F72206C697374206F6620636FCB
:1029C0006D6D616E6473200D0A000000FEE7FEE786
:1029D000FEE7FEE7FEE770477047704780B500F0FE
:1029E00009F801BD80B50248FEF7DCFA01BD000020
:1029F000D400002003490A680348006882180A606E
:102A0000704700BF180100206800002010B507497A
:102A100079441831064C7C44163404E00A68081DD9
:102A2000114488470146A142F8D110BD08000000BA
:102A30002400000081FEFFFFB400000070000020B1
:102A400000000000FFE2FFFFC401000026000000BC
:102A5000000000202F4657202D2053686F772066F6
:102A600069726D776172652076657273696F6E0D3C
:102A70000A00000000F00DF8002801D0FFF7C6FFA3
:102A8000AFF300800020AFF30080FEF7A7FE00F058
:102A900002F80120704700F001B8000007463846F0
:102AA00000F002F8FBE7000080B5AFF30080024AB7
:102AB00011001820ABBEFBE72600020005480146C6
:102AC00003B4684680F30988AFF30080AFF3008059
:102AD000FFF7D0FFA5EDF5FE52535349203D202DC1
:102AE00058585864426D0D0A000000000D0A4572E6
:102AF000726F722121210D0A00000000534E5220F6
:102B00003D2058585864420D0A00000000000000A3
:102B1000000000000102030406070809014880477D
:102B2000014800472D2B0008BD2A00085FF0006017
:102B3000014908607047000008ED00E00304060842
:102B40000C101820300000002F68656C700A00001F
:102B50002F46570A000000002F536574203078007C
:102B60000000000001020304FFF7FEBFFFF7FEBFF5
:102B7000FFF7FEBFFFF7FEBFFFF7FEBFFFF7FEBF89
:102B8000FFF7FEBFFFF7FEBFFFF7FEBFFFF7FEBF79
:102B9000FFF7FEBFFFF7FEBFFFF7FEBFFFF7FEBF69
:102BA000FFF7FEBFFFF7FEBFFFF7FEBFFFF7FEBF59
:102BB000FFF7FEBFFFF7FEBFFFF7FEBFFFF7FEBF49
:102BC000FFF7FEBFFFF7FEBFFFF7FEBFFFF7FEBF39
:102BD000FFF7FEBFFFF7FEBFFFF7FEBFFFF7FEBF29
:102BE000FFF7FEBFFFF7FEBFFFF7FEBFFFF7FEBF19
:102BF000FFF7FEBFFFF7FEBFFFF7FEBFFFF7FEBF09
:102C0000FFF7FEBFFFF7FEBFFFF7FEBF02010203A3
:0F2C10009F000010FD000001FD000368FF1F0082
:0400000508002ABD08
:00000001FF
