:020000040800F2
:10000000700400206D150008491500084B15000804
:100010004D1500084F15000851150008000000009C
:100020000000000000000000000000005315000860
:100030005515000800000000571500085915000864
:1000400085150008891500088D1500089115000810
:100050009515000899150008D51200089D1500088F
:10006000A1150008A5150008A9150008AD15000880
:10007000B1150008B5150008B9150008BD15000830
:10008000C1150008C5150008C9150008CD150008E0
:10009000D1150008D5150008D9150008DD15000890
:1000A00000000000E1150008E5150008E91500084A
:1000B000ED150008F1150008F5150008F915000800
:1000C000FD150008011600080516000809160008AD
:1000D0000D1600081116000815160008191600085C
:1000E000ED1200081D16000821160008251600084C
:1000F000291600082DE9FC47040041D0DFF8F0651F
:10010000D6F80880B5682078C10708F00C0805F417
:1001100080350ED5B8F1080F05D0B8F10C0F08BF27
:10012000B5F5803F42D13068810302D56068002870
:1001300026D02078DFF8C875810714D5B8F1040FF0
:1001400004D0B8F10C0F08BF002D66D130688107CC
:1001500002D5E06801281ED17068216920F4F850AA
:1001600040EA012070602078C10640F1AD80B8F10E
:10017000000F40F092803068810503D5A069002807
:1001800000F07F81206A716801F46041814261D290
:1001900000F075FA002840F074817168206A21F43B
:1001A00060410143716000F072F95EE0606801280F
:1001B00004D1306840F48030306013E008B9306812
:1001C00009E00528306806D140F4802030603168AD
:1001D00041F4803105E020F480303060316821F452
:1001E00080213160606860B100F09EFA0746306897
:1001F00081039ED400F098FAC01B6528F7D3032032
:1002000042E100F091FA07463068810391D500F091
:100210008BFAC01B6528F7D3F1E7E06868B10121CC
:10022000396000F081FA05463068810794D400F007
:100230007BFA401B0228F7D9E1E7386000F074FA36
:100240000546316888078ED500F06EFA401B0228FB
:10025000F7D9D4E7716821F46041084300F016F93A
:10026000206A00F00CFA002895D1216AB268490B87
:10027000C2F303120120491C8840DFF88814DFF81C
:100280007434895CC003C8401860DFF870040068EB
:1002900000F050FA010017D0F6E0A06948B3012140
:1002A000396200F041FA05463068810505D400F056
:1002B0003BFA401B0228F7D9A1E77068216A20F4B5
:1002C0006040084300F0E2F8207801072BD5606910
:1002D000DFF83414D0B101220A6000F025FA054697
:1002E000706B81071FD400F01FFA401B0228F7D95A
:1002F00085E7386200F018FA054630688105E3D5D5
:1003000000F012FA401B0228F7D978E7086000F0E5
:100310000BFA0546706B810705D500F005FA401B06
:100320000228F7D96BE72078410761D5706A00256C
:10033000C10009D4706A40F0805070620125706A73
:1003400000F0805000900098DFF8C093D9F80000CA
:10035000C10513D4D9F8000040F48070C9F800003A
:1003600000F0E2F98246D9F80000C10506D400F099
:10037000DBF9A0EB0A006528F5D340E7A068012867
:1003800008D008B9706B09E00528706B06D140F4FD
:1003900080607063706B40F4807005E020F48070C2
:1003A0007063706B20F48060706341F28939A068DB
:1003B00060B100F0B9F98246706B810513D400F08A
:1003C000B3F9A0EB0A004845F6D318E700F0ACF902
:1003D0008246706B810506D500F0A6F9A0EB0A00F5
:1003E0004845F6D30BE71DB1706A20F0805070626B
:1003F000606A002847D0B8F10C0F30D0022822D113
:1004000000F04BF805463068810105D500F08CF905
:10041000401B0228F7D9F2E6B068A16AE26A20F42C
:100420007D000843216B10430843B060012000F0B9
:1004300035F804463068810125D400F075F9001BB9
:100440000228F7D9DBE600F028F80446306881017D
:1004500019D500F069F9001B0228F7D9CFE6012869
:100460000FD0B068A26A00F48031914202BF00F45C
:100470007011E26A914202BF00F44000216B884291
:1004800001D0012000E00020BDE8F6877060E0693F
:10049000716860F31F61716070470020386600F07A
:1004A00043B92DE9F843040089466FD0DFF8606254
:1004B000306800F00100484502D200F08EF865D1A6
:1004C0002078DFF82C52810705D5AA68A06822F0B1
:1004D000F0020243AA602178C8074FD5606802285D
:1004E00002D129688A0308E0032802D129688A0119
:1004F00003E00128296802D18A0702D446E08A0570
:1005000044D5A968890840EA8100A86041F2893889
:1005100000F00AF90746606802280BD1A86800F0CD
:100520000C0008282AD000F0FFF8C01B4045F5D386
:10053000032050E003280AD1A86800F00C000C2822
:100540001CD000F0F1F8C01B4045F5D3F0E70128BE
:100550000AD1A86800F00C0004280FD000F0E4F8DD
:10056000C01B4045F5D3E3E7A86810F00C0F05D099
:1005700000F0DAF8C01B4045F6D3D9E7306800F048
:100580000100814504D200F028F801D0012022E0CA
:100590002078410705D5AA68E06822F4E0620243AA
:1005A000AA602178080706D5A968206921F460515E
:1005B00041EAC001A96000F021F8AA6851494D4BF9
:1005C000C2F30312895CC8401860BDE8F2434B488F
:1005D000006800F0AFB8BDE8F283B9F1010F03D1B4
:1005E000306840F0040030603168490849EA410150
:1005F0003160306800F001004845704730B546482A
:10060000416801F00C02042A04D0082A04D00C2A04
:1006100004D018E0384830BD404830BD404AC1F3EE
:100620008343D45C4068C1F38152521C0023C5034C
:1006300047BF3A48A0FB04012F4DA5FB0401BDE8CC
:10064000304000F099B80068400B00F0070001212D
:10065000401C01FA00F0C00330BD26482D4A006856
:1006600013683049C3F3022206E02248294A006891
:1006700013682C49C3F3C222895CC840704778B51F
:10068000244B23491C68002214F0F00F22D1DD69AD
:100690001E4CEE0003D5246804F4C0540FE0DD695D
:1006A00045F08055DD61DD6905F080550095009DC0
:1006B0002468DD6925F0805504F4C054DD61B4F58B
:1006C000C05F08BFB0F5404F04D10122086840F078
:1006D000040008600B685B0842EA43030B6008688B
:1006E00000F00100904201D0012072BD002072BDD7
:1006F00000380240140000200024F4000C00002008
:100700000000474270140008800647420070004015
:10071000003C0240083802400438024000366E01B6
:10072000641400087C15000801480068704700BF89
:100730000800002070B50E4E0446B0680025A0B138
:100740004FF47A710B4AB1FBF0F11068B0FBF1F095
:1007500000F0E1F848B9102C07D2002221464FF0F2
:10076000FF3000F0BBF8746000E00125284670BD42
:100770000800002014000020D3BBD9B1B2F5803F9F
:100780005BD2022A1ED98C46B1FBF2F102FB11C3E7
:100790001B0443EA1043B3FBF2FC02FB1C3380B2A0
:1007A00040EA0343B3FBF2F002FB103240EA0C4094
:1007B00000237047022A05D98446B0FBF2F002FB01
:1007C00010C270474AB105D100F0010249085FEA42
:1007D0003000704700220023704700F0BBB80B00C8
:1007E0000200002100207047F7D300220023704749
:1007F000904271EB030CF2D370B5B1FA81F4B3FA05
:1008000083F52C1BA340C4F1200532FA05F63343CF
:10081000A2405FF00046E64002E05B085FEA320279
:10082000841A71EB030524BF204629467641F4D390
:1008300002000B003000002170BD70B5B1FA81F4E8
:10084000B2FA82F5C4F120046419B4F12006DAD3B7
:10085000B2405FF00044F440002502E052085FEA35
:100860003303C61A71EB020E24BF30467146644151
:100870006D41F3D302000B002000290070BD0EE093
:1008800002684368024408305FEAC37C44BF4B44BB
:100890005B1E52F804CB43F804CB091FF9D150F882
:1008A000041B0029ECD170470901020002D424483E
:1008B00081547047234B02F00F021A4402F8041CC3
:1008C0007047214B19684FF6FF020002114000F4F7
:1008D000E06008431D4908431860704770B51A4B23
:1008E0001C68C4F302230124C3F10705052D2EBFA4
:1008F0000F2504FA05F56D1E1E1D072E34BF0023BB
:10090000DB1E2940994004FA03F3BDE870405B1EEA
:100910001A401143C8E710B5401EB0F1807F01D3E3
:10092000012010BD0A4C60600F214FF0FF30FFF72F
:10093000BBFF0021A16007202060002010BD000047
:1009400000E400E018ED00E00CED00E00000FA0526
:1009500010E000E070470000010007D4012200F021
:100960001F018D4B8A40400943F820207047090140
:10097000020002D4894881547047894B02F00F026B
:100980001A4402F8041C70478648016841F00101CE
:100990000160854885490A6802400A600B688448FE
:1009A00043F428430B600A6A02430A628A6822F40D
:1009B0007F328A60886840F47F3088600A6822F459
:1009C00040720A60086840F4807008608A6822F407
:1009D00040728A60886840F440708860886940F09E
:1009E00010008861704780B57248016841F48051F9
:1009F00001604FF44D7270480260016841F040019F
:100A0000016023200021FFF7B2FFBDE80240232050
:100A1000A2E738B56A4C0546206840F48010206093
:100A200000F0D6F800F00EF8456000F010F84568C8
:100A300000F0CEF8206840F01000206000F0C8F808
:100A4000E8B232BD5D4801688A07FCD5704701688D
:100A50008A07FCD501680A06FCD4002141600268BF
:100A6000D107FCD542680168CA07FCD5704770B54C
:100A700000F018F8FFF7E6FF46F0800646600168D0
:100A80008A07FCD5446001688A07FCD501680A061C
:100A9000FCD400F09DF8286840F010002860BDE804
:100AA000704095E0464D0646286840F48010286066
:100AB0000C468DE03B48016841F00201016041486D
:100AC000026822F018020260016841F0080101602A
:100AD000026822F440720260016841F48071016092
:100AE000826942F010028261016821F00C0101600C
:100AF000026842F004020260816941F002018161F2
:100B00000268920892000260016841F001010160F0
:100B1000826942F001028261016821F44061016052
:100B2000026842F480620260816941F400118161CF
:100B3000704780B51F48016841F0010101601B4802
:100B40000268920892000260016821F04041016051
:100B50001D4802680260416841F0F001416048F2BE
:100B600001011A4842690A43426183680B4383606A
:100B700002681143016006200021FFF7F8FE002102
:100B80002820FFF7F4FE0448402101604FF48072F2
:100B9000426062B601BD000000E100E000E400E058
:100BA00018ED00E01C380240FF03FF3F0000024048
:100BB000000050552038024000300140083001400C
:100BC00018000240000402400C00014000040140F3
:100BD00081B0002001E00098401C00900098B0F522
:100BE000807FF8D101B0704710B500F007F94220BE
:100BF000FFF70FFF12288E4C59D1206840F4803047
:100C00002060FFF7E5FF206840F0010020608021B0
:100C10000120FFF72CFF00210E20FFF728FF002105
:100C20000F20FFF724FF23210C20FFF720FF842152
:100C30004D20FFF71CFF2B210B20FFF718FFFF2192
:100C40000920FFF714FFD9210620FFF710FF00212C
:100C50000720FFF70CFF00210820FFF708FF00F036
:100C600078F887214D20FFF702FF3B210B20FFF78B
:100C7000FEFE8F210920FFF7FAFE98211D20FFF7C5
:100C8000F6FEC0211E20FFF7F2FE04212620FFF70A
:100C9000EEFE00214020FFF7EAFE00F056F800F0DB
:100CA00058F800F04EF8BDE81040852146E0206875
:100CB00040F4801000F006F8206840F0100000F0CA
:100CC00001F8F4E72060C82000F0BAB838B500F0A9
:100CD00040F800F03AF800F034F807212220FFF73E
:100CE000C6FE0024534DE0B2641C295C0020FFF7CF
:100CF000BEFEE0B20728F6D307212220FFF7B7FE99
:100D000083210120FFF7B3FE494C03E0206840F443
:100D1000003020601220FFF77CFE0028F6D008216A
:100D20001220FFF7A4FE4FF4967000F089F82068B7
:100D300040F0020020608021BDE834400120FFF730
:100D400096BE00210D20FFF792BE12213920FFF739
:100D50008EBE81210120FFF78ABE38B500208DF8B4
:100D60000000354C08E09DF80010002060549DF80C
:100D70000000401C8DF800009DF800001028F2DBF8
:100D8000FFF7E7FF00214020FFF771FEFFF7DDFFCF
:100D9000FFF7D7FF85210120FFF769FEFFF793FFDB
:100DA00050211220FFF763FEFFF7CFFF204D286888
:100DB00040F0200028604FF4967000F041F8286859
:100DC00040F40010286000251320FFF722FE1A20AF
:100DD000FFF71FFE1920FFF71CFE05E00020FFF7BC
:100DE00018FEE9B26D1C60541320FFF712FEE9B241
:100DF0008142F3D3FFF7ADFF207832BD10B50F4C21
:100E0000206820F00C0020600120216841F00401DE
:100E10002160A26942F40032A26100F011F8A069D9
:100E200040F00200A0610A20BDE8104000F008B8C0
:100E300018040240000000205C0000200000024076
:100E400038B50446FFF770FC14F1010F054602D0D7
:100E5000044988680419FFF767FC401BA042FAD3D5
:100E600031BD00BF080000202DE9F84F00276B4A74
:100E70006B4B4FF00F0805460E4638E0694CA54213
:100E800014BF052404248C40674944EA0E0441F849
:100E90002C40C143D2F800C0746801EA0C0CE40392
:100EA00048BF40EA0C0CC2F800C0D2F804C0746815
:100EB00001EA0C0CA40348BF40EA0C0CC2F804C0C1
:100EC000D2F808C0746801EA0C0CE40248BF40EA9A
:100ED0000C0CC2F808C0D2F80CC001EA0C0C716806
:100EE000890248BF40EA0C0CC2F80CC07F1C316874
:100EF00031FA07F000F08F800124BC4014EA0100B1
:100F0000F4D04FEA470C032101FA0CF16FEA010E0D
:100F1000716801F00309B9F1010F1CBF01F0030171
:100F2000022912D1A968D6F80C900EEA010109FA3B
:100F30000CF949EA0101A960696821EA04047168B1
:100F4000C1F30011B9400C436C60B900347904F06E
:100F50000304032C21D0EC68D6F808900EEA0404B0
:100F600009FA0CF949EA0404EC60347904F003044A
:100F7000022C12D1FC0805EB840401F01C09D4F802
:100F800020A008FA09FB2AEA0B0AD6F810B00BFADF
:100F900009F949EA0A09C4F820902C680EEA040EFF
:100FA000347904F0030404FA0CF444EA0E0CC5F896
:100FB00000C0746814F4403F98D0D3F800C01A4CB5
:100FC0004CF0010CC3F800C04FEA970CD3F800E0D6
:100FD0000EF0010ECDF800E001F00C01DDF800E0AC
:100FE00054F82C4008FA01FE24EA0E0E0F4CA542DC
:100FF00008BF00240ED00E4CA54208BF012409D022
:101000000C4CA54208BF022404D00B4CA5427FF42F
:1010100035AF032437E7BDE8F18F0000000401403D
:101020002038024000100240080001400000024049
:101030000004024000080240000C024038B50400E1
:1010400001D1012032BD00F028F808B900F016F8EF
:1010500000F019F800F025F8FFE7416100F001F811
:1010600032BD2068C16841F40051C1600020686051
:10107000202169702020A87000207047002129706D
:10108000204600F08AB8242068702068C16821F4E6
:101090000051C160204600F00EB804F13C056878AC
:1010A00070472068016921F490410161206841691D
:1010B00021F02A01704710B5044622681169E068E2
:1010C00021F4405101431161D3682248A1680340D3
:1010D00020690B4361690343E0690B430343D36019
:1010E0005169A06921F44071014351611A498A4252
:1010F00002D1FFF7BAFA01E0FFF7AFFA636822689E
:10110000E46919214843B4F5004F6FF063010FD132
:101110005B0000F023F8C90032316420B1FBF0F02D
:10112000410001F4F87101EB031100F007000DE03C
:101130009B0000F013F8090132316420B1FBF0F09C
:1011400000F0F00101EB031100F00F004018906077
:1011500010BD0000F369FFFF00380140B0FBF3F061
:101160006423B0FBF3F301FB0301704780B5224811
:10117000224901604FF4E13200230C214260836078
:10118000C360036141618361C361FFF757FF18B119
:10119000BDE8014000F0C0B801BD10B586B00446FE
:1011A0001422002101A800F0B9F8216813488142F7
:1011B00020D11348816841F400318160816801F4D5
:1011C000003100910099026842F0010202600C2196
:1011D000006800F001000090022200980948019187
:1011E000029200210391032207210591049201A993
:1011F000FFF73AFE06B010BD180000200044004082
:101200001C3802400000024038B500F091F800F0B0
:1012100029F8FFF7B9FBFFF7E6FBFFF74BFCFFF7F9
:1012200088FCFFF7E1FC00F083F800F01BF800F009
:101230008FF8FFF79BFF344C344D2878012803D1F9
:10124000FFF744FD0020287069780129F5D1FFF7E8
:1012500084FD482803D1206840F4803020600021BC
:101260006970EAE780B592B03422002105A800F049
:1012700055F814220021684600F050F8244802680E
:10128000012161F3CC220260089110220992022010
:1012900000220F9205900E904FF480214FF48002AF
:1012A0001091119205A8FEF725FF08B172B6FEE76E
:1012B0000F200321009001910022029203920492D8
:1012C00001216846FFF7EDF808B172B6FEE713B0EA
:1012D00000BD000001200F49086000BF00BF00BF33
:1012E00000BF00BF094B18707047000009494FF458
:1012F0000040086000BF00BF00BF00BF00BF012268
:10130000024B5A7070470000180402406C00002025
:10131000007000401404014072B6FEE710B50446A8
:1013200010460A460146204600F022F8204610BD2D
:10133000032010B5FFF7C5FA0020FFF7FBF90024E2
:10134000002814BF012400F047F8204610BD00001B
:10135000064881B0016841F001010160006800F0B9
:1013600001000090009801B0704700BF1C38024097
:1013700062F30F2262F31F42401810F0030308D0FB
:10138000C91A1FD3DB0748BF00F8012D28BF20F87A
:10139000022D130030B414461546103928BF20E939
:1013A0003C00FAD8490728BF20E90C0048BF40F8A4
:1013B000042D890028BF20F8022D48BF00F8012D18
:1013C00030BC7047C91818BF00F8012DCB0728BFE3
:1013D00000F8012D704700000F4881B0416841F0CE
:1013E00000414160416801F00041009100990268AC
:1013F00042F001020260036803F0010300930099C8
:10140000426842F080524260406800F08050009094
:10141000009801B0704700BF2038024030B400256A
:1014200012E050F8042BD30744BF4A44521E091F50
:10143000042942F8045BFAD213468C0744BF158096
:101440009B1CC90748BF1D7050F8041B0029E8D138
:1014500030BC704702494FF00060086070470000E0
:1014600008ED00E0030406080C101820300000000E
:101470000000000000000000010203040607080944
:1014800010B5074979441831064C7C44163404E001
:101490000A68081D114488470146A142F8D110BDD1
:1014A000080000002800000075FFFFFF5800000042
:1014B0001800002000000000C7F3FFFF1800000024
:1014C00070000000000000200000000000F00DF897
:1014D000002801D0FFF7D4FFAFF300800020AFF366
:1014E0000080FFF791FE00F002F80120704700F045
:1014F00001B800000746384600F002F8FBE700009C
:1015000080B5AFF30080024A11001820ABBEFBE7A4
:10151000260002000548014603B4684680F30988A6
:10152000AFF30080AFF30080FFF7D0FFA5EDF5FE2D
:1015300048656C6C6F210000000000001000000086
:101540000100000068FF1F00FEE7FEE7FEE7FEE780
:10155000FEE770477047704700F000B802490A681C
:10156000886882180A607047080000200148804798
:101570000148004755140008151500080000000038
:1015800001020304FFF7FEBFFFF7FEBFFFF7FEBF38
:10159000FFF7FEBFFFF7FEBFFFF7FEBFFFF7FEBF7F
:1015A000FFF7FEBFFFF7FEBFFFF7FEBFFFF7FEBF6F
:1015B000FFF7FEBFFFF7FEBFFFF7FEBFFFF7FEBF5F
:1015C000FFF7FEBFFFF7FEBFFFF7FEBFFFF7FEBF4F
:1015D000FFF7FEBFFFF7FEBFFFF7FEBFFFF7FEBF3F
:1015E000FFF7FEBFFFF7FEBFFFF7FEBFFFF7FEBF2F
:1015F000FFF7FEBFFFF7FEBFFFF7FEBFFFF7FEBF1F
:10160000FFF7FEBFFFF7FEBFFFF7FEBFFFF7FEBF0E
:10161000FFF7FEBFFFF7FEBFFFF7FEBFFFF7FEBFFE
:0C162000FFF7FEBFFFF7FEBFFFF7FEBFA5
:0400000508001515C5
:00000001FF
