:020000040800F2
:1000000028050020111D00087D1C00087F1C000829
:10001000811C0008831C0008851C000800000000EB
:10002000000000000000000000000000871C000825
:10003000891C0008000000008B1C00088D1C0008B3
:10004000291D00082D1D0008311D0008351D000860
:10005000391D00083D1D000859100008411D000809
:10006000451D0008491D00084D1D0008511D0008D0
:10007000551D0008591D00085D1D0008611D000880
:10008000651D0008691D00086D1D0008711D000830
:10009000751D0008791D00087D1D0008811D0008E0
:1000A00000000000851D0008891D00088D1D000846
:1000B000911D0008951D0008991D00089D1D000850
:1000C000A11D0008A51D0008A91D0008AD1D000800
:1000D000B11D0008B51D0008911C0008B91D0008DD
:1000E00071100008BD1D0008C11D0008C51D0008D5
:1000F000C91D000838B5040001D1012032BD00F04F
:1001000028F808B900F016F800F019F800F025F802
:10011000FFE7416100F001F832BD2068C16841F499
:100120000051C16000206860202169702020A87003
:100130000020704700212970204600F01EBB2420BB
:1001400068702068C16821F40051C160204600F049
:10015000A2BA04F13C05687870472068016921F46F
:10016000904101612068416921F02A0170472DE921
:10017000F843054605F13C060C46707820281746E2
:10018000994649D10CB1380001D1012045E03078C1
:10019000012841D00121317000207060212272704D
:1001A00000F06AFBAF848046EF84A868B0F5805FFA
:1001B00004BF286900280EBF2746204600270021DB
:1001C000317004460EE014F8012B426007E0286805
:1001D000002CF8D137F8021BC1F308014160E88C0C
:1001E000411EE9844346E88CCDF80090002807D0F2
:1001F00000228021284600F07BF90028E7D005E0A6
:1002000000224021284600F073F908B1032004E0E1
:1002100020207070002000E00220BDE8F28338B595
:1002200000F130039C7B202C0FD109B1140001D1C7
:10023000012032BD1C7B012C07D001241C7300253A
:100240001D60BDE8384000F086B9022032BD20684C
:10025000C16821F01001C16070470020E0852021B5
:1002600084F83E102063704710B500F01CF80DD5DF
:1002700000F013F850B10FF255314163A06B00F05C
:1002800024FB40B1A06B416B884704E0FFF7E5FF1A
:10029000204600F044FB002010BD416921F04001E0
:1002A0004161A06B704704462068C16821F49071D9
:1002B000C16020684169490849004161206B0128FB
:1002C00004D12068C16821F01001C1602068416933
:1002D0004A067047F8B5044625682B68284601464B
:1002E000C6684A6913F00F0F03F0200106F02000E2
:1002F00007D1002918BF00285BD02046BDE8F24096
:100300006DE1D70702D416F4907F52D0DD0705D5F2
:10031000F60503D5256C45F0010525645D0705D577
:10032000D60703D5256C45F0020525649D0705D544
:10033000D60703D5256C45F0040525641B0706D5B3
:1003400008B9D20703D5236C43F008032364226C59
:10035000002A2DD000291EBF0028204600F03FF9BA
:1003600020684069216C0A0701D440061BD520464D
:1003700000F00CF9206841694A060FD5FFF78DFFA0
:1003800060B10FF239214163A06B00F09EFA0028A2
:100390000ED0A06B416BBDE8F44008472046BDE895
:1003A000F24000F0BDBA204600F0BAFA0020206406
:1003B000F1BD276B012F03F0100104F13D0206F09F
:1003C000100057D1002918BF002853D000210091F8
:1003D0002B68009321684868009000992068436961
:1003E000580625D5A16B0868406880B2002878D0EF
:1003F000A38D984275DAE0858869202814D0216899
:10040000C86820F48070C86000F06CF8206841690A
:1004100021F0400141612020507000212163FFF74D
:1004200016FFA06B00F02EFAA18DE08D091A1BE0DB
:10043000A08DE18D411AE08D00281CBF88B20028F4
:100440004FD02068C36823F49073C3602068436969
:100450005B085B004361202050700022226320680B
:10046000C26822F01002C2602046BDE8F44089B2A2
:1004700000F057BA1B062BD5350629D51078212850
:100480002FD1A068B0F5805F04BF2069002809D192
:10049000206A22680188C1F308015160206A811C2A
:1004A000216205E0206A411C2162226800785060C8
:1004B000E08C401EE08480B298B92068C16821F0C9
:1004C0008001C1602068C16841F04001C160F1BD98
:1004D000002918BF002804D02046BDE8F24000F0F3
:1004E00083B9F1BD206841694908490041617047FD
:1004F0002DE9F041069C05460E4690461F462868A9
:1005000001683140B1420CBF01200020404519D1A3
:1005100014F1010FF3D024B100F0AEF9C01B8442F6
:10052000EDD22868C16821F4D071C160202200F0AA
:100530000CF805F13C00202141708270002101700F
:10054000032000E00020BDE8F081286841694908E7
:1005500049004161704781628285C28500F13C019A
:1005600000224A6022238B700A700168CB6843F432
:100570008073CB6001684A6942F001024A610068F9
:10058000C16841F02001C160002070470168CA685D
:1005900022F49072CA6001684A69520852004A61A6
:1005A000016B012904D10168CA6822F01002CA60F7
:1005B000202180F83E10002202637047406A00212B
:1005C000C1850022C28400F0ABB90000406A00215E
:1005D000C185202280F83E20016300F0A0B91CB53F
:1005E00090F83E10222954D18168826AB1F5805F6B
:1005F0000AD1016969B903685968C1F3080111801A
:10060000826A911C81620FE0002904BF0169002900
:1006100002D10368596803E00168496801F07F016D
:100620001170816A4A1C8262C18D491EC18589B2DE
:1006300069BB0168CA6822F02002CA600168CA6802
:1006400022F48072CA6001684A69520852004A6105
:10065000202180F83E10026B012A16D1002101638F
:100660000168CA6822F01002CA6002681168CB06ED
:1006700007D500240094126800920368596800911D
:10068000009A818D00F04DF901E000F0BFF80020E4
:1006900016BD022016BD10B5044622681169E06837
:1006A00021F4405101431161D3682248A1680340FD
:1006B00020690B4361690343E0690B430343D36043
:1006C0005169A06921F44071014351611A498A427C
:1006D00002D100F0E2FB01E000F0D7FB6368226882
:1006E000E46919214843B4F5004F6FF063010FD15D
:1006F0005B0000F023F8C90032316420B1FBF0F058
:10070000410001F4F87101EB031100F007000DE066
:100710009B0000F013F8090132316420B1FBF0F0C6
:1007200000F0F00101EB031100F00F0040189060A1
:1007300010BD0000F369FFFF00380140B0FBF3F08B
:100740006423B0FBF3F301FB0301704780B543481A
:10075000434901604FF4E13200230C214260836081
:10076000C360036141618361C361FFF7C3FC18B1DA
:10077000BDE8014000F094BC01BD10B586B0044650
:100780001422002101A800F08DFC21683448814228
:1007900028D13448816841F400318160816801F4D6
:1007A000003100910099026842F0010202600C21C0
:1007B000006800F001000090022200982A48019190
:1007C000029200210391032207210591049201A9BD
:1007D00000F072FC00220021262000F071FD26208E
:1007E00000F08BFD06B010BD1CB51C4CA0420CD116
:1007F0002168CA6822F01002CA600123C18D1B4A19
:100800001B48C1F16401117010E013BD1CB5134CFD
:10081000A0420AD12068C16821F01001C1606422A1
:10082000124913480A70012300E013BD03702046EB
:10083000FFF71AFD0021009121680A6800924B68B9
:1008400000930098CA6842F010022046CA6002B0C5
:10085000BDE8104064220749FFF7E1BCDC0000203E
:10086000004400401C38024000000240000000200C
:10087000010000200400002001480068704700BF0C
:10088000CC00002010B590F82120022A00F1380198
:1008900006D004230B60002180F82010012010BD39
:1008A00000F036F8146864086400146001220B7AC2
:1008B000496803F01C039A404A600021012280F835
:1008C000212080F82010002010BD38B590F821209C
:1008D0000024022A00F1340103D0042048600124DE
:1008E00014E000F015F815686D086D001560012220
:1008F0000B7B8D6803F01C039A406A60012280F82C
:10090000212080F82040096801B18847204632BD87
:100910000268136823F00E03136002687047704783
:10092000704770472DE9FC47040041D0DFF8F065BF
:10093000D6F80880B5682078C10708F00C0805F4DF
:1009400080350ED5B8F1080F05D0B8F10C0F08BFEF
:10095000B5F5803F42D13068810302D56068002838
:1009600026D02078DFF8C875810714D5B8F1040FB8
:1009700004D0B8F10C0F08BF002D66D13068810794
:1009800002D5E06801281ED17068216920F4F85072
:1009900040EA012070602078C10640F1AD80B8F1D6
:1009A000000F40F092803068810503D5A0690028CF
:1009B00000F07F81206A716801F46041814261D258
:1009C00000F075FA002840F074817168206A21F403
:1009D00060410143716000F072F95EE060680128D7
:1009E00004D1306840F48030306013E008B93068DA
:1009F00009E00528306806D140F480203060316875
:100A000041F4803105E020F480303060316821F419
:100A100080213160606860B1FFF72EFF07463068C3
:100A200081039ED4FFF728FFC01B6528F7D303205E
:100A300042E1FFF721FF07463068810391D5FFF7B8
:100A40001BFFC01B6528F7D3F1E7E06868B10121FF
:100A50003960FFF711FF05463068810794D4FFF72E
:100A60000BFF401B0228F7D9E1E73860FFF704FFCE
:100A70000546316888078ED5FFF7FEFE401B022829
:100A8000F7D9D4E7716821F46041084300F016F902
:100A9000206A00F00CFA002895D1216AB268490B4F
:100AA000C2F303120120491C8840DFF88814DFF8E4
:100AB0007434895CC003C8401860DFF870040068B3
:100AC00000F046FC010017D0F6E0A06948B3012110
:100AD0003962FFF7D1FE05463068810505D4FFF77E
:100AE000CBFE401B0228F7D9A1E77068216A20F4E9
:100AF0006040084300F0E2F8207801072BD56069D8
:100B0000DFF83414D0B101220A60FFF7B5FE0546C4
:100B1000706B81071FD4FFF7AFFE401B0228F7D987
:100B200085E73862FFF7A8FE054630688105E3D502
:100B3000FFF7A2FE401B0228F7D978E70860FFF70D
:100B40009BFE0546706B810705D5FFF795FE401BA0
:100B50000228F7D96BE72078410761D5706A002534
:100B6000C10009D4706A40F0805070620125706A3B
:100B700000F0805000900098DFF8C093D9F8000092
:100B8000C10513D4D9F8000040F48070C9F8000002
:100B9000FFF772FE8246D9F80000C10506D4FFF7C0
:100BA0006BFEA0EB0A006528F5D340E7A06801289A
:100BB00008D008B9706B09E00528706B06D140F4C5
:100BC00080607063706B40F4807005E020F480708A
:100BD0007063706B20F48060706341F28939A068A3
:100BE00060B1FFF749FE8246706B810513D4FFF7B1
:100BF00043FEA0EB0A004845F6D318E7FFF73CFE9A
:100C00008246706B810506D5FFF736FEA0EB0A0021
:100C10004845F6D30BE71DB1706A20F08050706232
:100C2000606A002847D0B8F10C0F30D0022822D1DA
:100C300000F04BF805463068810105D5FFF71CFE32
:100C4000401B0228F7D9F2E6B068A16AE26A20F4F4
:100C50007D000843216B10430843B060012000F081
:100C600035F804463068810125D4FFF705FE001BE6
:100C70000228F7D9DBE600F028F804463068810145
:100C800019D5FFF7F9FD001B0228F7D9CFE6012897
:100C90000FD0B068A26A00F48031914202BF00F424
:100CA0007011E26A914202BF00F44000216B884259
:100CB00001D0012000E00020BDE8F6877060E06907
:100CC000716860F31F617160704700203866FFF73C
:100CD000D3BD2DE9F843040089466FD0DFF8606288
:100CE000306800F00100484502D200F08EF865D16E
:100CF0002078DFF82C52810705D5AA68A06822F079
:100D0000F0020243AA602178C8074FD56068022824
:100D100002D129688A0308E0032802D129688A01E0
:100D200003E00128296802D18A0702D446E08A0537
:100D300044D5A968890840EA8100A86041F2893851
:100D4000FFF79AFD0746606802280BD1A86800F0FB
:100D50000C0008282AD0FFF78FFDC01B4045F5D3B3
:100D6000032050E003280AD1A86800F00C000C28EA
:100D70001CD0FFF781FDC01B4045F5D3F0E70128EB
:100D80000AD1A86800F00C0004280FD0FFF774FD0A
:100D9000C01B4045F5D3E3E7A86810F00C0F05D061
:100DA000FFF76AFDC01B4045F6D3D9E7306800F075
:100DB0000100814504D200F028F801D0012022E092
:100DC0002078410705D5AA68E06822F4E062024372
:100DD000AA602178080706D5A968206921F4605126
:100DE00041EAC001A96000F021F8AA6851494D4BC1
:100DF000C2F30312895CC8401860BDE8F2434B4857
:100E0000006800F0A5BABDE8F283B9F1010F03D183
:100E1000306840F0040030603168490849EA410117
:100E20003160306800F001004845704730B54648F1
:100E3000416801F00C02042A04D0082A04D00C2ACC
:100E400004D018E0384830BD404830BD404AC1F3B6
:100E50008343D45C4068C1F38152521C0023C50314
:100E600047BF3A48A0FB04012F4DA5FB0401BDE894
:100E7000304000F08FBA0068400B00F007000121FD
:100E8000401C01FA00F0C00330BD26482D4A00681E
:100E900013683049C3F3022206E02248294A006859
:100EA00013682C49C3F3C222895CC840704778B5E7
:100EB000244B23491C68002214F0F00F22D1DD6975
:100EC0001E4CEE0003D5246804F4C0540FE0DD6925
:100ED00045F08055DD61DD6905F080550095009D88
:100EE0002468DD6925F0805504F4C054DD61B4F553
:100EF000C05F08BFB0F5404F04D10122086840F040
:100F0000040008600B685B0842EA43030B60086852
:100F100000F00100904201D0012072BD002072BD9E
:100F200000380240D80000200024F400D000002047
:100F300000004742341C0008800647420070004011
:100F4000003C0240083802400438024000366E017E
:100F5000281C0008201D000870B500F0BBFA00F046
:100F600043F800F0B7FA00F03FF800F0D0FAFFF7CE
:100F7000EDFB00F093FB00F0C0FB00F0D5FA00F0B1
:100F800012FB00F042FB00F02FFC404C404D20686B
:100F9000404EC16841F01001C1606422291D204605
:100FA000FFF73DF9687828B12978281D00F08DFCFD
:100FB00000206870A8780028F4D0E91C05F16800CA
:100FC00000F0CFFCEA78642305F168012046FFF7C2
:100FD000CEF800F043FD00F05BFD306840F4801077
:100FE00030600021A970DDE780B592B03422002185
:100FF00005A800F057F814220021684600F052F8C6
:1010000025480268012161F3CC2202600891102278
:101010000992022000220F9205900E904FF4802139
:101020004FF480021091119205A8FFF77BFC08B1E4
:1010300072B6FEE70F200321009001910022029278
:101040000392049201216846FFF743FE08B172B68D
:10105000FEE713B000BD000001201049086000BF8A
:1010600000BF00BF00BF00BF094B587070470000B1
:101070000A494FF40040086000BF00BF00BF00BF36
:1010800000BF0122024B9A7070470000DC00002074
:1010900000000020180402400070004014040140C9
:1010A00072B6FEE710B5044610460A4601462046D1
:1010B00000F03AFD204610BD2DE9F84F00276B4A9D
:1010C0006B4B4FF00F0805460E4638E0694CA542C1
:1010D00014BF052404248C40674944EA0E0441F8F7
:1010E0002C40C143D2F800C0746801EA0C0CE40340
:1010F00048BF40EA0C0CC2F800C0D2F804C07468C3
:1011000001EA0C0CA40348BF40EA0C0CC2F804C06E
:10111000D2F808C0746801EA0C0CE40248BF40EA47
:101120000C0CC2F808C0D2F80CC001EA0C0C7168B3
:10113000890248BF40EA0C0CC2F80CC07F1C316821
:1011400031FA07F000F08F800124BC4014EA01005E
:10115000F4D04FEA470C032101FA0CF16FEA010EBB
:10116000716801F00309B9F1010F1CBF01F003011F
:10117000022912D1A968D6F80C900EEA010109FAE9
:101180000CF949EA0101A960696821EA040471685F
:10119000C1F30011B9400C436C60B900347904F01C
:1011A0000304032C21D0EC68D6F808900EEA04045E
:1011B00009FA0CF949EA0404EC60347904F00304F8
:1011C000022C12D1FC0805EB840401F01C09D4F8B0
:1011D00020A008FA09FB2AEA0B0AD6F810B00BFA8D
:1011E00009F949EA0A09C4F820902C680EEA040EAD
:1011F000347904F0030404FA0CF444EA0E0CC5F844
:1012000000C0746814F4403F98D0D3F800C01A4C62
:101210004CF0010CC3F800C04FEA970CD3F800E083
:101220000EF0010ECDF800E001F00C01DDF800E059
:1012300054F82C4008FA01FE24EA0E0E0F4CA54289
:1012400008BF00240ED00E4CA54208BF012409D0CF
:101250000C4CA54208BF022404D00B4CA5427FF4DD
:1012600035AF032437E7BDE8F18F000000040140EB
:1012700020380240001002400800014000000240F7
:101280000004024000080240000C02400901020074
:1012900002D4294881547047284B02F00F021A44A7
:1012A00002F8041C7047264B19684FF6FF02000233
:1012B000114000F4E0600843224908431860704779
:1012C00070B51F4B1C68C4F302230124C3F107054A
:1012D000052D2EBF0F2504FA05F56D1E1E1D072EC8
:1012E00034BF0023DB1E2940994004FA03F3BDE814
:1012F00070405B1E1A401143C8E7010007D4012269
:1013000000F01F01104B8A40400943F8202070472D
:1013100010B5401EB0F1807F01D3012010BD0B4CF1
:1013200060600F214FF0FF30FFF7B0FF0021A16098
:1013300007202060002010BD00E400E018ED00E070
:101340000CED00E00000FA0500E100E010E000E034
:1013500070B50E4E0446B0680025A0B14FF47A7106
:101360000B4AB1FBF0F11068B0FBF1F0FFF7D0FFD2
:1013700048B9102C07D2002221464FF0FF30FFF76A
:101380009FFF746000E00125284670BDCC0000205E
:10139000D8000020D3BBD9B1B2F5803F5BD2022A7E
:1013A0001ED98C46B1FBF2F102FB11C31B0443EAC8
:1013B0001043B3FBF2FC02FB1C3380B240EA034350
:1013C000B3FBF2F002FB103240EA0C4000237047FE
:1013D000022A05D98446B0FBF2F002FB10C2704726
:1013E0004AB105D100F0010249085FEA30007047B8
:1013F00000220023704700F0CBBB0B00020000214D
:1014000000207047F7D3002200237047904271EB11
:10141000030CF2D370B5B1FA81F4B3FA83F52C1B47
:10142000A340C4F1200532FA05F63343A2405FF031
:101430000046E64002E05B085FEA3202841A71EB84
:10144000030524BF204629467641F4D302000B0051
:101450003000002170BD70B5B1FA81F4B2FA82F5A6
:10146000C4F120046419B4F12006DAD3B2405FF06D
:101470000044F440002502E052085FEA3303C61A34
:1014800071EB020E24BF3046714664416D41F3D3C7
:1014900002000B002000290070BD30B5016884688F
:1014A0004218416802EB5103C90703D54C4401E0DF
:1014B000491C08D19A4218BF12F9011B01D10C3006
:1014C00030BD12F8015B002904F8015BF0D4491E1D
:1014D000F7D5EFE7032010B5FFF7E5FE0020FFF793
:1014E00037FF0024002814BF012400F053FB2046DE
:1014F00010BD00000901020002D458488154704711
:10150000574B02F00F021A4402F8041C704755486A
:1015100081B0016841F001010160006800F0010044
:101520000090009801B070474E48016841F00201F8
:1015300001604D48026822F018020260016841F023
:1015400008010160026822F440720260016841F4FF
:1015500080710160826942F010028261016821F0AD
:101560000C010160026842F004020260816941F0EE
:10157000020181610268920892000260016841F0F4
:1015800001010160826942F001028261016821F477
:1015900040610160026842F480620260816941F446
:1015A00000118161704780B53048016841F0010148
:1015B00001602F480268920892000260016821F0E1
:1015C000404101602B4802680260416841F0F0012F
:1015D000416048F20101284842690A434261836838
:1015E0000B43836002681143016006200021FFF76E
:1015F00081FF00212820FFF77DFF20484021016066
:101600004FF48072426062B601BD1D48416941F0ED
:101610000101416116490A6822F440320A600B68F0
:1016200043F400330B608A6822F440328A608A688F
:1016300042F440328A604A6A120912014A624A6AD6
:101640004A62016821F0E0410160026822F0E06234
:101650000260016841F080710160704700E400E0C1
:1016600018ED00E01C38024000040240203802401F
:10167000000002400C0001400004014000E100E0D5
:101680000838024081B0002001E00098401C009022
:101690000098B0F5807FF8D101B0704744480168E8
:1016A00041F001010160434843490A6802400A6071
:1016B0000B68424843F428430B600A6A02430A62FB
:1016C0008A6822F47F328A60886840F47F308860BC
:1016D0000A6822F440720A60086840F4807008606A
:1016E0008A6822F440728A60886840F4407088609A
:1016F000886940F01000886170473148314B0168BB
:1017000041F4805101604FF44D722F48026001682E
:101710002E4A41F04001016000201070082119603C
:10172000704738B52A4C0546206840F48010206088
:10173000FFF7A8FF00F036F8456000F04DF80021F3
:1017400041600268D107FCD542680168CA07FCD530
:101750004568FFF797FF206840F010002060FFF712
:1017600091FFE8B232BD70B5194D0646286840F4C5
:10177000801028600C46FFF785FF00F013F846F054
:101780008006466001688A07FCD5446000F024F8B2
:10179000FFF778FF286840F010002860BDE870402F
:1017A000FFF770BF0B4801688A07FCD5704700003F
:1017B0001C380240FF03FF3F00000240000050556C
:1017C0002038024004E100E00030014023E400E062
:1017D000180002400830014001688A07FCD5016802
:1017E0000A06FCD47047000010B500F01CF9422036
:1017F000FFF797FF1228B64C58D1206840F480308C
:101800002060FFF73FFF206840F00100206080214A
:101810000120FFF7A8FF00210E20FFF7A4FF002101
:101820000F20FFF7A0FF23210C20FFF79CFF84214E
:101830004D20FFF798FF2B210B20FFF794FFFF218E
:101840000920FFF790FFD9210620FFF78CFF002128
:101850000720FFF788FF00210820FFF784FF00F032
:101860007CF887214D20FFF77EFF3B210B20FFF7FF
:101870007AFF8F210920FFF776FF98211D20FFF7BF
:1018800072FFC0211E20FFF76EFF04212620FFF704
:101890006AFF00214020FFF766FF00F056F800F0D5
:1018A0005CF800F056F8BDE810404AE0206840F4CB
:1018B000801000F006F8206840F0100000F001F8F9
:1018C000F4E72060C82000F087B970B504460D46E3
:1018D00000F043F800F039F800F03BF829462220E8
:1018E000FFF741FF002604E0215C0020FFF73BFFEB
:1018F000761C2946F0B28842F6D32220FFF733FF48
:1019000083210120FFF72FFF714C03E0206840F492
:10191000003020601220FFF704FF0028F6D00821D5
:101920001220FFF720FF4FF4967000F055F9206861
:1019300040F00200206000F010F800F00AF8BDE866
:10194000704085210120FFF70EBF12213920FFF7DB
:101950000ABF00210D20FFF706BF81210120FFF7FC
:1019600002BF7CB5044600200D468DF8000008E05B
:101970009DF80000002121549DF80010491C8DF8AD
:1019800000109DF800006428F2DBFFF7E6FF00215D
:101990004020FFF7E8FEFFF7D8FFFFF7DAFF8521C9
:1019A0000120FFF7E0FEFFF78DFF1220FFF7B9FEE1
:1019B00050211220FFF7D7FEFFF7C7FF444E3068D3
:1019C00040F0200030604FF4967000F005F9306868
:1019D00040F4001030601320FFF7A3FE28700025AC
:1019E0001920FFF79EFE05E00020FFF79AFEE9B2FE
:1019F0006D1C60541320FFF794FEE9B28142F3D3CB
:101A00001A20FFF78EFE334CC0F19D002070192084
:101A1000FFF787FE80086070FFF79FFFFFF799FFD1
:101A2000BDE87C408DE710B52B4C206820F00C0001
:101A300020600120216841F004012160A26942F484
:101A40000032A26100F0C8F8A06940F00200A06175
:101A50000A20BDE8104000F0BFB8000030B585B0E6
:101A60004FEA0D0027A11B4C112200F0C9F8217884
:101A7000642091FBF0F030308DF8080000F030F871
:101A80008DF80A108DF809406423112219E0000036
:101A900038B584B04FEA0D001FA10E4C0E2200F0A5
:101AA000AFF861780846642290FBF2F030308DF890
:101AB000060000F015F88DF808108DF80740642333
:101AC0000E2269460548FEF752FB05B030BD000006
:101AD000180402402001002000000240DC00002029
:101AE0009C23A0F1300403FB041403FB0011F62037
:101AF000E4B20A2594FBF5F4303400FB04113039CC
:101B00007047000052535349203D202D58585864C7
:101B1000426D0D0A00000000534E52203D205858DF
:101B20005864420D0A00000062F30F2262F31F4264
:101B3000401810F0030308D0C91A1FD3DB0748BFB1
:101B400000F8012D28BF20F8022D130030B41446F0
:101B50001546103928BF20E93C00FAD8490728BFAC
:101B600020E90C0048BF40F8042D890028BF20F868
:101B7000022D48BF00F8012D30BC7047C91818BFAE
:101B800000F8012DCB0728BF00F8012D7047000099
:101B9000704700000F4881B0416841F0004141604A
:101BA000416801F0004100910099026842F0010291
:101BB0000260036803F0010300930099426842F059
:101BC00080524260406800F080500090009801B060
:101BD000704700BF2038024038B50446FEF74CFE7F
:101BE00014F1010F054602D0044988680419FEF774
:101BF00043FE401BA042FAD331BD00BFCC00002001
:101C00004AB1000011F8013B521E00F8013B1CBF15
:101C100011F8013BF8E7704702494FF00060086097
:101C20007047000008ED00E0030406080C101820BF
:101C3000300000000000000000000000010203046A
:101C40000607080910B5074979441831064C7C4449
:101C5000163404E00A68081D114488470146A14271
:101C6000F8D110BD08000000140000002FF8FFFF9D
:101C70005C0100003000000000000020FEE7FEE7ED
:101C8000FEE7FEE7FEE770477047704700F006B8D2
:101C90000148FEF71FBB0000DC00002002490A6873
:101CA000886882180A607047CC00002000F00DF8A8
:101CB000002801D0FFF7C6FFAFF300800020AFF38C
:101CC0000080FFF749F900F002F80120704700F0AA
:101CD00001B800000746384600F002F8FBE70000B4
:101CE00080B5AFF30080024A11001820ABBEFBE7BD
:101CF000260002000548014603B4684680F30988BF
:101D0000AFF30080AFF30080FFF7D0FFA5EDF5FE45
:101D10000148804701480047191C0008F51C0008CD
:101D20000000000001020304FFF7FEBFFFF7FEBF43
:101D3000FFF7FEBFFFF7FEBFFFF7FEBFFFF7FEBFD7
:101D4000FFF7FEBFFFF7FEBFFFF7FEBFFFF7FEBFC7
:101D5000FFF7FEBFFFF7FEBFFFF7FEBFFFF7FEBFB7
:101D6000FFF7FEBFFFF7FEBFFFF7FEBFFFF7FEBFA7
:101D7000FFF7FEBFFFF7FEBFFFF7FEBFFFF7FEBF97
:101D8000FFF7FEBFFFF7FEBFFFF7FEBFFFF7FEBF87
:101D9000FFF7FEBFFFF7FEBFFFF7FEBFFFF7FEBF77
:101DA000FFF7FEBFFFF7FEBFFFF7FEBFFFF7FEBF67
:101DB000FFF7FEBFFFF7FEBFFFF7FEBFFFF7FEBF57
:101DC000FFF7FEBFFFF7FEBFFFF7FEBFFC000201FB
:101DD00002038100B6000010FD000001FD00026852
:041DE000FF1FB90028
:0400000508001CF5DE
:00000001FF
