:020000040800F2
:100000003004002015110008F1100008F31000085A
:10001000F5100008F7100008F910000800000000B3
:10002000000000000000000000000000FB100008BD
:10003000FD10000800000000FF100008011100087A
:1000400025110008291100082D11000831110008A0
:100050003511000839110008150F00083D1100087E
:100060004111000845110008491100084D11000810
:100070005111000855110008591100085D110008C0
:100080006111000865110008691100086D11000870
:100090007111000875110008791100087D11000820
:1000A0000000000081110008851100088911000876
:1000B0008D11000891110008951100089911000890
:1000C0009D110008A1110008A5110008A911000840
:1000D000AD110008B1110008B5110008B9110008F0
:1000E000BD110008C1110008C5110008C9110008A0
:1000F000CD1100082DE9FC47040041D0DFF8CC65A4
:10010000D6F80880B5682078C10708F00C0805F417
:1001100080350ED5B8F1080F05D0B8F10C0F08BF27
:10012000B5F5803F42D13068810302D56068002870
:1001300026D02078DFF8A475810714D5B8F1040F14
:1001400004D0B8F10C0F08BF002D66D130688107CC
:1001500002D5E06801281ED17068216920F4F850AA
:1001600040EA012070602078C10640F1AD80B8F10E
:10017000000F40F092803068810503D5A069002807
:1001800000F07F81206A716801F46041814261D290
:1001900000F063FA002840F074817168206A21F44D
:1001A00060410143716000F072F95EE0606801280F
:1001B00004D1306840F48030306013E008B9306812
:1001C00009E00528306806D140F4802030603168AD
:1001D00041F4803105E020F480303060316821F452
:1001E00080213160606860B100F08AFA07463068AB
:1001F00081039ED400F084FAC01B6528F7D3032046
:1002000042E100F07DFA07463068810391D500F0A5
:1002100077FAC01B6528F7D3F1E7E06868B10121E0
:10022000396000F06DFA05463068810794D400F01B
:1002300067FA401B0228F7D9E1E7386000F060FA5E
:100240000546316888078ED500F05AFA401B02280F
:10025000F7D9D4E7716821F46041084300F016F93A
:10026000206A00F0FAF9002895D1216AB268490B9A
:10027000C2F303120120491C8840DFF86414DFF840
:100280005034895CC003C8401860DFF84C04006833
:1002900000F03CFA010017D0F6E0A06948B3012154
:1002A000396200F02DFA05463068810505D400F06A
:1002B00027FA401B0228F7D9A1E77068216A20F4C9
:1002C0006040084300F0E2F8207801072BD5606910
:1002D000DFF81014D0B101220A6000F011FA0546CF
:1002E000706B81071FD400F00BFA401B0228F7D96E
:1002F00085E7386200F004FA054630688105E3D5E9
:1003000000F0FEF9401B0228F7D978E7086000F0FA
:10031000F7F90546706B810705D500F0F1F9401B30
:100320000228F7D96BE72078410761D5706A00256C
:10033000C10009D4706A40F0805070620125706A73
:1003400000F0805000900098DFF89C93D9F80000EE
:10035000C10513D4D9F8000040F48070C9F800003A
:1003600000F0CEF98246D9F80000C10506D400F0AD
:10037000C7F9A0EB0A006528F5D340E7A06801287B
:1003800008D008B9706B09E00528706B06D140F4FD
:1003900080607063706B40F4807005E020F48070C2
:1003A0007063706B20F48060706341F28939A068DB
:1003B00060B100F0A5F98246706B810513D400F09E
:1003C0009FF9A0EB0A004845F6D318E700F098F92A
:1003D0008246706B810506D500F092F9A0EB0A0009
:1003E0004845F6D30BE71DB1706A20F0805070626B
:1003F000606A002847D0B8F10C0F30D0022822D113
:1004000000F04BF805463068810105D500F078F919
:10041000401B0228F7D9F2E6B068A16AE26A20F42C
:100420007D000843216B10430843B060012000F0B9
:1004300035F804463068810125D400F061F9001BCD
:100440000228F7D9DBE600F028F80446306881017D
:1004500019D500F055F9001B0228F7D9CFE601287D
:100460000FD0B068A26A00F48031914202BF00F45C
:100470007011E26A914202BF00F44000216B884291
:1004800001D0012000E00020BDE8F6877060E0693F
:10049000716860F31F61716070470020386600F07A
:1004A0002FB92DE9F843040089466FD0DFF83C628C
:1004B000306800F00100484502D200F08EF865D1A6
:1004C0002078DFF80852810705D5AA68A06822F0D5
:1004D000F0020243AA602178C8074FD5606802285D
:1004E00002D129688A0308E0032802D129688A0119
:1004F00003E00128296802D18A0702D446E08A0570
:1005000044D5A968890840EA8100A86041F2893889
:1005100000F0F6F80746606802280BD1A86800F0E2
:100520000C0008282AD000F0EBF8C01B4045F5D39A
:10053000032050E003280AD1A86800F00C000C2822
:100540001CD000F0DDF8C01B4045F5D3F0E70128D2
:100550000AD1A86800F00C0004280FD000F0D0F8F1
:10056000C01B4045F5D3E3E7A86810F00C0F05D099
:1005700000F0C6F8C01B4045F6D3D9E7306800F05C
:100580000100814504D200F028F801D0012022E0CA
:100590002078410705D5AA68E06822F4E0620243AA
:1005A000AA602178080706D5A968206921F460515E
:1005B00041EAC001A96000F021F8AA684849444B0B
:1005C000C2F30312895CC8401860BDE8F243424898
:1005D000006800F09BB8BDE8F283B9F1010F03D1C8
:1005E000306840F0040030603168490849EA410150
:1005F0003160306800F001004845704730B53D4833
:10060000416801F00C02042A04D0082A04D00C2A04
:1006100004D018E02F4830BD374830BD374AC1F309
:100620008343D45C4068C1F38152521C0023C5034C
:1006300047BF3148A0FB0401264DA5FB0401BDE8DE
:10064000304000F085B80068400B00F00700012141
:10065000401C01FA00F0C00330BD78B5244B23499B
:100660001C68002214F0F00F22D1DD691E4CEE0050
:1006700003D5246804F4C0540FE0DD6945F08055CB
:10068000DD61DD6905F080550095009D2468DD6918
:1006900025F0805504F4C054DD61B4F5C05F08BF97
:1006A000B0F5404F04D10122086840F00400086012
:1006B0000B685B0842EA43030B60086800F0010026
:1006C000904201D0012072BD002072BD003802406E
:1006D000140000200024F4000C0000200000474219
:1006E000441000088006474200700040003C024071
:1006F000083802400438024000366E013810000805
:1007000001480068704700BF0800002070B50E4E19
:100710000446B0680025A0B14FF47A710B4AB1FBD2
:10072000F0F11068B0FBF1F000F0E9F848B9102CD6
:1007300007D2002221464FF0FF3000F0C3F874606A
:1007400000E00125284670BD0800002014000020AC
:10075000D3BBD9B1B2F5803F5BD2022A1ED98C46F9
:10076000B1FBF2F102FB11C31B0443EA1043B3FBDC
:10077000F2FC02FB1C3380B240EA0343B3FBF2F00D
:1007800002FB103240EA0C4000237047022A05D9D0
:100790008446B0FBF2F002FB10C270474AB105D1AB
:1007A00000F0010249085FEA300070470022002390
:1007B000704700F0C3B80B00020000210020704712
:1007C000F7D3002200237047904271EB030CF2D361
:1007D00070B5B1FA81F4B3FA83F52C1BA340C4F1D0
:1007E000200532FA05F63343A2405FF00046E640AA
:1007F00002E05B085FEA3202841A71EB030524BF52
:10080000204629467641F4D302000B003000002137
:1008100070BD70B5B1FA81F4B2FA82F5C4F120046A
:100820006419B4F12006DAD3B2405FF00044F4401A
:10083000002502E052085FEA3303C61A71EB020E8C
:1008400024BF3046714664416D41F3D302000B0072
:100850002000290070BD30B50168846842184168E5
:1008600002EB5103C90703D54C4401E0491C08D1F0
:100870009A4218BF12F9011B01D10C3030BD12F899
:10088000015B002904F8015BF0D4491EF7D5EFE7BE
:100890000901020002D4244881547047234B02F01E
:1008A0000F021A4402F8041C7047214B19684FF6D6
:1008B000FF020002114000F4E06008431D490843B4
:1008C0001860704770B51A4B1C68C4F302230124EA
:1008D000C3F10705052D2EBF0F2504FA05F56D1E82
:1008E0001E1D072E34BF0023DB1E2940994004FA49
:1008F00003F3BDE870405B1E1A401143C8E710B512
:10090000401EB0F1807F01D3012010BD0A4C606011
:100910000F214FF0FF30FFF7BBFF0021A160072040
:100920002060002010BD000000E400E018ED00E0B1
:100930000CED00E00000FA0510E000E07047000058
:1009400010B500F023F9422000F0BEF912289C4CAB
:1009500063D1206840F48030206000F063FA2068A2
:1009600040F001002060802100F0B5F800210E2049
:1009700000F0D8F900210F2000F0D4F923210C2039
:1009800000F0D0F984214D2000F0CCF92B210B2070
:1009900000F0C8F98F21092000F0C4F9D921062000
:1009A00000F0C0F90021072000F0BCF90021082068
:1009B00000F0B8F900F08EF887214D2000F0B2F970
:1009C00031210B2000F0AEF98F21092000F0AAF9A7
:1009D00098211D2000F0A6F9C0211E2000F0A2F9E8
:1009E0000421262000F09EF900F074F800F06EF863
:1009F0000021242000F096F9802100F06CF800F02E
:100A00001BF800F05FF800F065F800F05FF8BDE853
:100A100010408521012000F085B9206840F4801045
:100A200000F006F8206840F0100000F001F8F4E74C
:100A30002060C82000F002BA0021402000F072B906
:100A400038B54021FFF7F9FF00F03CF800F042F81C
:100A500000F038F800F03AF80721222000F062F99F
:100A60000024584DE0B2641C295C002000F05AF9C3
:100A7000E0B20728F6D30721222000F053F98321A2
:100A800000F029F84E4C03E0206840F4003020606C
:100A9000122000F019F90828F6D10821122000F0E0
:100AA00041F94FF4967000F0C9F9206840F0020057
:100AB0002060802100F00FF8BDE8324040F6B830E9
:100AC00000F0BCB91221392000F02CB900210D2012
:100AD00000F028B98121012000F024B938B50020A8
:100AE0008DF80000384C08E09DF80010002060549C
:100AF0009DF80000401C8DF800009DF800001028B3
:100B0000F2DBFFF7E7FFFFF797FFFFF7DBFFFFF7EA
:100B1000DDFF8521FFF7DFFF41F2883000F08EF91D
:100B20002A4801680A042FD5FFF783FF50211220BD
:100B300000F0F8F8FFF7C6FF214D286840F02000CC
:100B400028604FF4967000F079F9286840F400109E
:100B500028600025132000F0B7F81A2000F0B4F840
:100B6000192000F0B1F805E0002000F0ADF8E9B27E
:100B70006D1C6054132000F0A7F8E9B28142F3D352
:100B8000FFF7A8FF207832BD402032BD10B5104CD1
:100B9000206820F00C0020600120216841F0040151
:100BA0002160A26942F40032A26100F047F9A06915
:100BB00040F00200A0610A20BDE8104000F03EB9FC
:100BC000180402400000002018000020100002401D
:100BD00000000240010007D4012200F01F01824BF7
:100BE0008A40400943F8202070470901020002D4DE
:100BF0007E48815470477E4B02F00F021A4402F87F
:100C0000041C704710B57B497B4A086840F001001E
:100C1000086013687948034013601468784844F406
:100C200028441460136A03431362936823F47F33E8
:100C30009360906840F47F309060136823F44073B1
:100C40001360106840F480701060936823F4407360
:100C50009360906840F440709060906940F010009C
:100C60009061486840F00100486011686548890853
:100C7000890011600121026802600122624841611D
:100C80008260016841F00101016006200021FFF748
:100C9000ACFF0620FFF79EFF62B610BD80B55B4833
:100CA000016841F4805101604FF44D725848026070
:100CB000016841F04001016023200021FFF795FF0A
:100CC00054480821016001BD38B5544C05462068E0
:100CD00040F48010206000F0A5F800F00EF84560A8
:100CE00000F010F8456800F09DF8206840F0100012
:100CF000206000F097F8E8B232BD474801688A07E3
:100D0000FCD5704701688A07FCD501680A06FCD447
:100D1000002141600268D107FCD542680168CA071A
:100D2000FCD5704770B500F018F8FFF7E6FF46F005
:100D30008006466001688A07FCD5446001688A071E
:100D4000FCD501680A06FCD400F06CF8286840F075
:100D500010002860BDE8704064E0304D0646286809
:100D600040F4801028600C465CE02248016841F0A5
:100D7000020101602A48026822F01802026001683C
:100D800041F008010160026822F4407202600168CB
:100D900041F480710160826942F010028261016851
:100DA00021F00C010160026842F0040202608169D6
:100DB00041F00201816102689208920002600168BC
:100DC00041F001010160826942F001028261016823
:100DD00021F440610160026842F48062026081692E
:100DE00041F400118161704700E100E000E400E09F
:100DF00018ED00E01C38024000000240FF03FF3FF6
:100E0000000050550C000140000401402038024011
:100E10000030014004E100E00830014018000240C9
:100E20000004024081B0002001E00098401C0090C6
:100E30000098B0F5807FF8D101B0704738B504460E
:100E4000FFF75EFC14F1010F054602D004498868E3
:100E50000419FFF755FC401BA042FAD331BD00BF77
:100E60000800002038B500F06FF800F01CF8FFF71C
:100E7000C9FEFFF713FFFFF778FFFFF761FD2D4C69
:100E80002D4D2878012805D1FFF7DAFD002001213A
:100E900028706970FFF722FE4828F2D1206840F4DC
:100EA00080302060EDE780B592B03422002105A8A3
:100EB00000F059F814220021684600F054F81F4849
:100EC0000268012161F3CC2202600891102209928C
:100ED000022000220F9205900E904FF480214FF4D3
:100EE00080021091119205A8FFF704F908B172B6BB
:100EF000FEE70F200321009001910022029203924D
:100F0000049201216846FFF7CCFA08B172B6FEE7F9
:100F100013B000BD0A480168CA0709D50120094974
:100F2000086000BF00BF00BF00BF00BF024B1870C9
:100F300070470000180402402800002000700040A4
:100F40001000024014040140032010B5FFF7ADFC6F
:100F50000020FFF7DBFB0024002814BF012400F071
:100F60000DF8204610BD10B5044610460A4601464D
:100F7000204600F025F8204610BD00000F4881B043
:100F8000416841F000414160416801F00041009139
:100F90000099026842F001020260036803F0010355
:100FA00000930099426842F080524260406800F02D
:100FB00080500090009801B0704700BF2038024078
:100FC00062F30F2262F31F42401810F0030308D0AF
:100FD000C91A1FD3DB0748BF00F8012D28BF20F82E
:100FE000022D130030B414461546103928BF20E9ED
:100FF0003C00FAD8490728BF20E90C0048BF40F858
:10100000042D890028BF20F8022D48BF00F8012DCB
:1010100030BC7047C91818BF00F8012DCB0728BF96
:1010200000F8012D7047000002494FF00060086091
:101030007047000008ED00E0030406080C101820BB
:101040003000000000000000000000000102030466
:101050000607080910B5074979441831064C7C4445
:10106000163404E00A68081D114488470146A1426D
:10107000F8D110BD0800000014000000DBF7FFFFEE
:10108000500100002E0000000000002000F00DF8CC
:10109000002801D0FFF7DEFFAFF300800020AFF3A0
:1010A0000080FFF7DFFE00F002F80120704700F03B
:1010B00001B800000746384600F002F8FBE70000E0
:1010C00080B5AFF30080024A11001820ABBEFBE7E9
:1010D000260002000548014603B4684680F30988EB
:1010E000AFF30080AFF30080FFF7D0FFA5EDF5FE72
:1010F000FEE7FEE7FEE7FEE7FEE770477047704752
:1011000000F000B802490A68886882180A607047CF
:1011100008000020014880470148004729100008C6
:10112000D5100008FFF7FEBFFFF7FEBFFFF7FEBFB9
:10113000FFF7FEBFFFF7FEBFFFF7FEBFFFF7FEBFE3
:10114000FFF7FEBFFFF7FEBFFFF7FEBFFFF7FEBFD3
:10115000FFF7FEBFFFF7FEBFFFF7FEBFFFF7FEBFC3
:10116000FFF7FEBFFFF7FEBFFFF7FEBFFFF7FEBFB3
:10117000FFF7FEBFFFF7FEBFFFF7FEBFFFF7FEBFA3
:10118000FFF7FEBFFFF7FEBFFFF7FEBFFFF7FEBF93
:10119000FFF7FEBFFFF7FEBFFFF7FEBFFFF7FEBF83
:1011A000FFF7FEBFFFF7FEBFFFF7FEBFFFF7FEBF73
:1011B000FFF7FEBFFFF7FEBFFFF7FEBFFFF7FEBF63
:1011C000FFF7FEBFFFF7FEBFFFF7FEBFFFF7FEBF53
:1011D0000548656C6C6F21FA000010FD000001FDF0
:0711E000000268FF1FED0093
:04000005080010D50A
:00000001FF
