:020000040800F2
:10000000B0060020113B0008B1380008B3380008E2
:10001000B5380008B7380008B938000800000000FB
:10002000000000000000000000000000BB380008D5
:10003000BD38000800000000BF380008C1380008C3
:10004000A13B0008A53B0008A93B0008AD3B000808
:10005000B13B0008B53B000847290008B93B000840
:10006000BD3B0008C13B0008C53B0008C93B000878
:10007000CD3B0008D13B0008D53B0008D93B000828
:10008000DD3B0008E13B0008E53B0008E93B0008D8
:10009000ED3B0008F13B0008F53B0008F93B000888
:1000A00000000000FD3B0008C9380008013C0008C2
:1000B000053C0008093C00080D3C0008113C000804
:1000C000153C0008193C00081D3C0008213C0008B4
:1000D000253C0008293C0008D33800082D3C0008C6
:1000E00079290008313C0008353C0008393C0008FB
:1000F0003D3C000830B400210B0000242200140015
:10010000E4B2082C07DA1C0602D590EA430300E0AB
:100110005B00521CF3E7DFF890480D00EDB2635529
:10012000491C0C00E4B2002CE6D130BC704730B45E
:100130000200D2B2120900231400E4B20A2C06DA3B
:1001400012F130041D00EDB24C555B1C05E012F1BC
:1001500037041D00EDB24C555B1C10F00F0422005B
:100160001C00E4B2022CE7DB30BC70472DE9F04103
:1001700004000D0000275FF000084046C0B2205C7C
:10018000303806003000C0B20A280EDB4046C0B24C
:10019000205C00F045FCB0F141010800C0B2062827
:1001A00001DB002011E00E000A36FFB23000C0B2C1
:1001B000D8F1010189008840C71918F101084046AB
:1001C000C0B20228D9DB2F700120BDE8F081F0B465
:1001D0000300002500200A24B3FBF4F604FB1634C8
:1001E00025000A24B3FBF4F3401C1600F6B2040009
:1001F000E4B2361B15F130048C55002B01D00124DC
:1002000000E0002406001700F6B2FFB2BE4201D2A1
:10021000012600E00026E4B23442DCD1C0B2F0BCDA
:1002200070471CB504006846DFF880170A68026052
:100230006946200000F0FEFB002801D0002101707B
:1002400013BD38B5040025002878002805D028788B
:1002500000F0E6FB28706D1CF6E7200032BD10B5FB
:100260009EB00EA8DFF84817D1E90023C0E90023AB
:100270006846DFF840170A6802600CA8DFF83817F4
:10028000D1E90023C0E900230AA8DFF83017D1E93B
:100290000023C0E9002308A8DFF82417D1E90023D0
:1002A000C0E9002316A8DFF81C1791E81C0080E8BD
:1002B0001C0006A8DFF81017D1E90023C0E90023CD
:1002C00013A8DFF8081791E81C0080E81C0010A8AC
:1002D000DFF8FC1691E81C0080E81C0019A8DFF884
:1002E000F416142200F0C8FBDFF8EC462000FFF7FC
:1002F00098FF1422210001A800F01EFCFFF7A1FFC7
:10030000200000F051FC032871D320782F286ED1F3
:1003100006220EA901A800F062FC002803D100F01B
:1003200069F8012064E00322694601A800F057FC47
:10033000002803D100F075F8012059E005220CA92E
:1003400001A800F04CFC002803D100F0D5F80120F2
:100350004EE006220AA901A800F041FC002804D1C1
:1003600001A800F0CEF8012042E0072208A901A868
:1003700000F035FC002804D101A800F0DAF80120D3
:1003800036E0082216A901A800F029FC002804D1B3
:1003900001A800F031F901202AE0072206A901A8EE
:1003A00000F01DFC002803D100F064F901201FE0DB
:1003B000092210A901A800F012FC002803D100F0C6
:1003C000C5FC012014E00A2213A901A800F007FCD3
:1003D000002803D100F023FE012009E01E23122291
:1003E00019A9DFF8F80500F07AFE002000E00020EF
:1003F0001EB010BD80B5ADF5067D6846DFF8E0158E
:1004000040F2152200F028FB64234FF40572694680
:10041000DFF8C80500F063FE00F0B4F90DF5077DC4
:1004200000BD10B588B000F09BFA6846DFF8B4153F
:10043000202200F021FB64231F226946DFF89C057F
:1004400000F04DFEDFF8A045206850F480102060D9
:10045000206850F400302060206850F48030206024
:10046000206850F0200020604FF4FA7001F028FA64
:10047000206850F002002060206850F001002060E9
:10048000206850F400102060642001F019FA206800
:1004900050F010002060206850F40030206064208C
:1004A00001F00EFA206850F002002060206850F43D
:1004B00080302060642001F003FA206850F00100D1
:1004C0002060206850F020002060642001F0F8F9DE
:1004D000206850F001002060206850F0100020607B
:1004E000206850F002002060206850F40010206066
:1004F00000F048F908B010BD0120DFF8F0140870D2
:10050000704738B584B004006846DFF8E4140D2263
:1005100000F0A2FAA0798DF80900A079B0F13005B9
:1005200064230C226946DFF8B40400F0D8FD05B05E
:1005300030BD30B58BB0040000208DF800000020E5
:100540008DF80100E0798DF80500207A8DF804001F
:10055000207B8DF80300607B8DF802006A4601A9BC
:100560000DF1050000F023F905000DF101020DF178
:1005700002010DF1030000F01AF905423AD09DF88E
:100580000000012806D19DF801109DF8000001F03F
:1005900044FA12E0012001F014FA05008121012043
:1005A00001F03BFA9DF801109DF8000001F035FACA
:1005B0002900C9B2012001F030FA02A8DFF8341492
:1005C000242200F059FADFF81004C1798DF81310D5
:1005D000017A8DF81410017B8DF82910407B8DF87D
:1005E0002A006423232202A9DFF8F00300F077FD3C
:1005F00000F0C8F80BB030BD18B589B00400002079
:100600008DF8010000208DF80000207A8DF803009D
:10061000607A8DF802000DF101020DF102010DF179
:10062000030000F0C4F8002822D09DF8010001F07A
:10063000C8F98DF8000001A8DFF8BC131F2200F0F4
:100640000BFADFF89403017A8DF81810407A8DF8D0
:1006500019000DF1210208A9684600F0E6F86423AC
:100660001E2201A9DFF8740300F039FD00F08AF8BA
:100670000AB010BDF0B589B0D84C1E230122B7A135
:10068000200000F02CFD01A8DFF870130E2200F00E
:10069000E3F905A8DA490E2200F0DEF90125312040
:1006A000FFF728FDFF2600208DF800009DF80000D0
:1006B000402837DA2800C0B2002802D00020050008
:1006C00005E01E230122AEA1200000F008FD9DF8E8
:1006D000000001F076F98DF80100B34AF6B29DF8FA
:1006E00000004640915DC9B29DF801004140565C52
:1006F00002AA0DF10701684600F097F80DF10F020C
:100700000DF10E010DF1010000F08FF81E230D22F6
:1007100001A9200000F0E3FC9DF80000401C8DF8CA
:100720000000C3E72C208DF8040001A822214170AD
:1007300043218DF806105221C170432101710DF142
:100740000E013000C0B2FFF7F2FC0DF102010DF115
:100750000E00FFF70BFD032205A93000C0B2FFF722
:1007600036FD07001E230D2201A9200000F0B7FC72
:100770001E2303228BA1200000F0B1FC00F002F840
:1007800009B0F0BD81B000208DF800009DF8000098
:1007900064280ADA002090499DF8002088549DF8CA
:1007A0000000401C8DF80000F0E701B0704770B504
:1007B00004000D001600002030702078302806DB81
:1007C00020783A2803DA2078000130700FE0207892
:1007D000412808DB2078472805DA20780001B0F5A9
:1007E0005C70307003E000F047F800201CE02878CF
:1007F000302808DB28783A2805DA3178287830382C
:10080000014331700FE02878412808DB2878472819
:1008100005DA3178287837380143317003E000F089
:100820002BF8002000E0012070BD0378DBB21B092B
:100830000B700B780A2B02DA0B7830330B700B78C5
:100840000A2B05DB0B78102B02DA0B7837330B7091
:10085000037813F00F03137013780A2B02DA13785E
:100860003033137013780A2B05DB1378102B02DA60
:10087000137837331370704700B587B06846614905
:10088000192200F0E9F8642318226946534800F061
:1008900026FC07B000BD18B585B068465A4911223C
:1008A00000F0DAF8594A69461078642390FBF3F0B7
:1008B0003030087213780C7A303C7FF0630000FB14
:1008C00004334B72487A0A2390FBF3F030304872BD
:1008D00012780B7A9C2000FB03224B7AF62000FB57
:1008E0000322B2F1300088721E23102269463B4871
:1008F00000F0F5FB06B010BD1FB5684644490E2256
:1009000000F0AAF843496A460878642390FBF3F0A4
:10091000303090710B789479303C7FF0630000FBAD
:100920000433D371D0790A2390FBF3F03030D071C7
:10093000097893799C2000FB0311D279F62000FB03
:100940000211B1F130008DF808001E230D22694616
:10095000224800F0C4FB1FBD000000007B00000027
:1009600080B592B068462C49472200F075F81E23E6
:1009700046226946194800F0B2FB13B000BD0000E2
:100980002C00000080B58AB068462449262200F079
:1009900063F8642325226946104800F0A0FB0BB0E1
:1009A00000BD00007D0D0A00B8000020983B000843
:1009B000603B00089C3B0008683B0008703B000857
:1009C000783B0008303B0008803B00083C3B0008B7
:1009D000483B0008703A0008000000201C0200207C
:1009E000183600089039000818040240AA020020B6
:1009F000C03A00084C390008B0390008D03A000865
:100A0000E03A0008383A0008843A0008A4020020BE
:100A1000F03A0008A502002030380008FC38000831
:100A200010B5044601F04BF801462046C96ABDE8FE
:100A30001040084730B400E0401C03784BB10C462E
:100A40002278002AF8D014F8015BAB42F8D130BC10
:100A5000704730BC0020704762B38B0708D0521E2D
:100A600011F8013B00F8013B00F024808B07F6D120
:100A7000830740F0208000BF103A07D330B4B1E8BC
:100A80003810103AA0E83810F9D230BC530724BF10
:100A9000B1E80810A0E8081044BF51F8043B40F842
:100AA000043BD20724BF31F8022B20F8022B44BFAD
:100AB0000B7803707047121F17D35B0009D151F8F0
:100AC000043B20F8023B1B0C121F20F8023BF6D21D
:100AD0000BE051F8043B00F8013B1B0A20F8023BF5
:100AE0001B0C121F00F8013BF3D238BF121D521E1F
:100AF00024BF11F8013B00F8013BF8D8704730B52E
:100B0000016884684218416802EB5103C90703D5A4
:100B10004C4401E0491C08D19A4218BF12F9011B4C
:100B200001D10C3030BD12F8015B002904F8015BE3
:100B3000F0D4491EF7D5EFE701B58B071AD183072B
:100B400024D1121F21D351F8043BA3F1013C2CEA1C
:100B5000030C1CF0803C04BF40F8043BF1E79CFA16
:100B60008CFCBCFA8CF1C1F118018B40CB4040F8F1
:100B7000043B13E0042A09D311F8013B521E00F88C
:100B8000013B5BB18B07F7D1D9E7121D5AB111F8C0
:100B9000013B521E00F8013B03B1F8D111001CBF0C
:100BA000002200F095FF01BD00F10103810704D090
:100BB00010F8011B820781B1FAD10268A2F101315C
:100BC000914311F0803104BF50F8042FF6E709BAC1
:100BD000B1FA81F100EBD100401CC01A70478AB114
:100BE0000B7890F800C09C4506D110F8013B4BB142
:100BF000491C521EF4D105E002D24FF0FF3070477D
:100C0000012070470020704710B410F00703DFF890
:100C1000504122684FF6FF010A4052EA0322DFF8F2
:100C200044110A43226010BC70474D480068C0F36D
:100C300002207047010049B2002909D4012210F0B6
:100C40001F018A40484903005BB25B0941F8232039
:100C5000704710B4020052B2002A05D40A01434B77
:100C6000040064B21A5508E00A01414B040064B262
:100C700014F00F04234403F8042C10BC704770B424
:100C8000030013F00704D4F10700052801D3042062
:100C900001E0D4F10700251D072D01D2002500E059
:100CA000E51E012616FA00F0401E0140A94016FA82
:100CB00005F56D1E2A401143080070BC7047BFF354
:100CC0004F8F27490A6812F4E0622A4802430A60FB
:100CD000BFF34F8F00BFFDE710B50400601EB0F1F9
:100CE000807F01D301200EE0601E234908600F21A0
:100CF0005FF0FF30FFF7ADFF0020204908600720BC
:100D00001F490860002010BD10B504002000FFF747
:100D10007BFF10BD2DE9F04104000D0016000027F7
:100D2000FFF783FF8046320029004046FFF7A7FF08
:100D30000100200040B2FFF78CFFBDE8F08110B544
:100D40000400200040B2FFF775FF10BD80B5FFF72B
:100D5000B6FF01BD10B504002000FFF7BDFF10BDB8
:100D60000CED00E00000FA0500E100E000E400E026
:100D700018ED00E00400FA0514E000E018E000E0DF
:100D800010E000E010B500F04AF9422000F019FE32
:100D9000122863D1AF4C206850F48030206000F0FE
:100DA000C1FF206850F0010020608021012000F088
:100DB00034FE00210E2000F030FE00210F2000F054
:100DC0002CFE23210C2000F028FE84214D2000F071
:100DD00024FE3B210B2000F020FEFF21092000F023
:100DE0001CFED921062000F018FE0021072000F08B
:100DF00014FE0021082000F010FE8121012000F0E7
:100E00000CFE87214D2000F008FE3B210B2000F056
:100E100004FE8F21092000F000FE98211D2000F023
:100E2000FCFDC4211E2000F0F8FD0421262000F066
:100E3000F4FD0021402000F0F0FD1221392000F0E7
:100E4000ECFD8121012000F0E8FD00210D2000F0E3
:100E5000E4FD8521012000F0E0FD0FE07D4C2068DD
:100E600050F480102060C82000F02AFD206850F067
:100E700010002060C82000F023FDEFE710BD70B522
:100E800004000D008121012000F0C7FD122139204E
:100E900000F0C3FD00210D2000F0BFFD2900C9B204
:100EA000222000F0BAFD002630002900C0B2C9B2ED
:100EB000884207D23000C0B2215C002000F0ADFDB6
:100EC000761CF1E72900C9B2222000F0A6FD83219B
:100ED000012000F0A2FD4FF4967000F0F1FC12200A
:100EE00000F06FFD5B4E306850F400303060082138
:100EF000122000F092FD4FF4967000F0E1FC306893
:100F000050F0020030608121012000F086FD0021B8
:100F10000D2000F082FD8521012000F07EFD0021E2
:100F20000D2000F07AFDFFF72DFC70BD7CB50400AC
:100F30000D0000208DF800009DF80000642809DAFB
:100F400000209DF8001060549DF80000401C8DF8B2
:100F50000000F1E78121012000F05FFD122139201E
:100F600000F05BFD00210D2000F057FD85210120E0
:100F700000F053FDC82000F0A3FC122000F021FD7A
:100F80005021122000F049FD1221392000F045FDCA
:100F9000304E306850F0200030604FF4967000F012
:100FA0008FFC306850F400103060132000F009FD11
:100FB0002870192000F005FD0026132000F001FD27
:100FC0003100C9B2814207D2002000F0FAFC3100A2
:100FD000C9B26054761CF0E71A2000F0F2FCD0F1A0
:100FE0009D001D490870192000F0EBFCC0B280087C
:100FF0001A4908708121012000F00FFD00210D2009
:1010000000F00BFD8521012000F007FD00214020AC
:1010100000F003FD00210D2000F0FFFC73BD10B5B2
:101020000F48016831F00C010160016851F00401C2
:1010300001600C4C206850F400302060012000F06A
:101040003FFC206850F0020020600A2000F038FCCD
:1010500010BD000018040240A4020020A5020020D8
:10106000000002401800024010B50400002C01D11D
:10107000012033E0A0690028FFD194F83D0000284A
:1010800005D1002084F83C00200000F073FE2420ED
:1010900084F83D002068C06830F400502168C860C2
:1010A000200000F051FB2068006930F49040216876
:1010B00008612068406930F02A0021684861206892
:1010C000C06850F400502168C860002020642020CF
:1010D00084F83D00202084F83E00002010BD2DE95A
:1010E000FC4706000D0017009846002496F83D00C6
:1010F00020285DD1002D03D0380080B2002801D116
:10110000012056E096F83C00012801D1022050E071
:10111000012086F83C0000203064212086F83D0044
:1011200000F09AFE8146B784F784B068B0F5805F1E
:1011300005D13069002802D10024AA4602E02C0023
:101140005FF0000A002086F83C00F08C00281ED0DA
:10115000CDF800804B4600228021300000F0B1F92C
:10116000002801D0032024E0002C08D1BAF80000A8
:10117000C005C00D316848601AF1020A03E020780A
:1011800031684860641CF08C401EF084DDE7CDF8C7
:1011900000804B4600224021300000F092F90028E8
:1011A00001D0032005E0202086F83D00002000E06B
:1011B0000220BDE8F68770B505000C00160095F812
:1011C0003E00202819D1002C03D0300080B2002826
:1011D00001D1012012E095F83C00012801D1022044
:1011E0000CE0012085F83C0000202863320092B218
:1011F0002100280000F09CF900E0022070BD10B52D
:1012000004002068C06830F490702168C8602068CD
:1012100040694008400021684861206B012805D1E1
:101220002068C06830F010002168C86020684069FC
:10123000400621D52068406930F0400021684861AF
:10124000A06B00280DD00FF27D30A16B4863A06B1E
:1012500000F032FE002819D0A06BA16B496B8847C3
:1012600014E00020E085202084F83E000020206368
:10127000200000F050FE09E00020E085202084F8E6
:101280003E0000202063200000F045FE002010BD3D
:101290002DE9FC470600306807683068D0F80C80FC
:1012A0003068D0F814900020002517F00F04002CAF
:1012B00008D1B80606D55FEA886003D5300000F093
:1012C000D2F9FCE0002C6FD05FEAC97002D418F4A8
:1012D000907F69D03800C00706D55FEAC85003D5B3
:1012E000306C50F001003064780706D54846C007DE
:1012F00003D5306C50F002003064B80706D548467C
:10130000C00703D5306C50F004003064380709D5AD
:101310005FEA886002D44846C00703D5306C50F0BD
:1013200008003064306C00283DD0B80605D55FEA6F
:10133000886002D5300000F096F930684069800975
:1013400010F001000500306C000701D4002D25D0FD
:10135000300000F00FF93068406940061AD5306857
:10136000406930F0400031684861B06B00280DD012
:101370000FF23920B16B4863B06B00F09DFD00287F
:1013800011D0B06BB16B496B88470CE0300000F0B6
:10139000C3FD08E0300000F0BFFD04E0300000F0C5
:1013A000BBFD002030648AE0306B012875D1F8065F
:1013B00073D55FEAC86070D500200090306800687F
:1013C000009030684068009000983068406940069E
:1013D0003AD5B06B0068D0F804A0504680B200281F
:1013E00031D05046B18D80B288422CD2A6F82EA0C2
:1013F000B06B806920281FD03068C06830F48070DE
:101400003168C86030684069400840003168486110
:101410003068406930F0400031684861202086F82B
:101420003E00002030633068C06830F01000316842
:10143000C860B06B00F016FDB18DF08D091A89B24D
:10144000300000F06AFD3AE0B08DB6F82EA0B0EBA7
:101450000A0AF08D00281FD0504680B200281BD009
:101460003068C06830F490703168C8603068406996
:101470004008400031684861202086F83E00002086
:1014800030633068C06830F010003168C860514681
:1014900089B2300000F041FD11E0380606D55FEA60
:1014A000086003D5300000F09BF808E0780606D508
:1014B0005FEA486003D5300000F0C5F8FFE7BDE8FB
:1014C000F3872DE9F04105000E0090461F00069CB1
:1014D000286800683040B04201D1012000E00020BF
:1014E0004146C9B2884220D114F1010FF0D0002C3E
:1014F00004D000F0B1FCC01B8442E9D22868C06867
:1015000030F4D0702968C8602868406940084000FD
:1015100029684861202085F83D00202085F83E009C
:10152000002085F83C00032000E00020BDE8F081A9
:1015300010B4030099629A85DA850020186422208D
:1015400083F83E00002083F83C001868C06850F41F
:1015500080701C68E0601868406950F001001C68E9
:1015600060611868C06850F020001C68E0600020CE
:1015700010BC70470168C96831F490710268D1608D
:10158000016849694908490002685161016B0129F4
:1015900005D10168C96831F010010268D1602021CD
:1015A00080F83E10002101637047000038B5040048
:1015B000656A0020E8850020E884280000F0ACFC83
:1015C00031BD000038B50400656A0020E8852020A0
:1015D00085F83E0000202863280000F09CFC31BD07
:1015E000010091F83D0021282BD18868B0F5805F7B
:1015F0000DD1086900280AD1086A02001088C005C8
:10160000C00D0B685860086A801C086205E0086A13
:10161000431C0B6200780B685860C88C401EC8845D
:1016200080B200280BD10868C06830F080000B68D9
:10163000D8600868C06850F040000B68D86000208F
:1016400000E00220704710B504002068C06830F048
:1016500040002168C860202084F83D00200000F090
:101660005DFC002010BD7CB5040094F83E002228EB
:1016700068D1A068B0F5805F0DD1206900280AD13B
:101680000025A66A20684068C005C00D3080A06AA9
:10169000801CA06217E0A56A0026A068B0F5805FF4
:1016A00005D0A068002806D12069002803D1206851
:1016B0004068287004E02068406810F07F002870BF
:1016C000A06A401CA062E08D401EE08580B2002828
:1016D00036D12068C06830F020002168C8602068DA
:1016E000C06830F480702168C86020684069400894
:1016F000400021684861202084F83E00206B0128CA
:1017000019D1002020632068C06830F010002168E3
:10171000C86020680068C00608D5002000902068D6
:10172000006800902068406800900098A18D20001B
:1017300000F0F3FB02E0200000F054FB002002E088
:10174000002000E0022076BDF8B5040020680169A1
:1017500031F44051E068014320680161A5682069C7
:10176000054360690543E06905432068C168524844
:10177000014029432068C1602068416931F440710B
:10178000A06901432068416120684C49884202D128
:1017900000F07FFF01E000F071FFE169B1F5004F5B
:1017A00045D17FF06301192202FB00F366687600E1
:1017B000B3FBF6F36426B3FBF6F302FB00F66768AF
:1017C0007F00B6FBF7F602FB00F7D4F804C05FEA2F
:1017D0004C0CB7FBFCF75FF0640CB7FBFCF701FBAC
:1017E0000766F60032366427B6FBF7F6760016F485
:1017F000F87616EB031602FB00F367687F00B3FB75
:10180000F7F302FB00F267687F00B2FBF7F2642790
:10181000B2FBF7F201FB0231C90032316422B1FBA5
:10182000F2F111F007018E1921688E6043E07FF01C
:101830006301192202FB00F36668B600B3FBF6F3FE
:101840006426B3FBF6F302FB00F66768BF00B6FB45
:10185000F7F602FB00F7D4F804C05FEA8C0CB7FB84
:10186000FCF75FF0640CB7FBFCF701FB0766360181
:1018700032366427B6FBF7F616F0F00616EB0316C1
:1018800002FB00F36768BF00B3FBF7F302FB00F253
:101890006768BF00B2FBF7F26427B2FBF7F201FB07
:1018A0000231090132316422B1FBF2F111F00F0172
:1018B0008E1921688E60F1BDF369FFFF0038014089
:1018C00070B5040000F0C8FA0500260016F1010FFB
:1018D00002D004480068861900F0BEFA401BB042EE
:1018E000FAD370BD68000020010049B2002909D474
:1018F000012210F01F018A405C4903005BB25B09C2
:1019000041F82320704710B4020052B2002A05D4D7
:101910000A01574B040064B21A5508E00A01554BFE
:10192000040064B214F00F04234403F8042C10BC28
:1019300070475148016851F0010101604F490A6840
:101940004F4802400A60086850F4284008604D4A39
:1019500013684D48034313604C48026832F47F32E9
:101960000260026852F47F3202600A6832F4407208
:101970000A600A6852F480720A60016831F44071AA
:101980000160016851F4407101604148016851F003
:1019900010010160704780B53E48016851F48051E4
:1019A00001603D484FF44D710160016851F0400104
:1019B000016000212320FFF7A6FF2320FFF794FFFB
:1019C00001BD70B50400324D286850F480102860C5
:1019D00000F0A8F9314801688907FBD53049220099
:1019E000D2B20A6002689207FCD502681206FCD4E3
:1019F00000220A600268D207FCD50A680268D20792
:101A0000FCD50E6800F08EF9286850F010002860B0
:101A100000F088F93000C0B270BD70B506000C004F
:101A20001B4D286850F48010286000F07BF91B489B
:101A300001688907FBD51A493200D2B252F0800200
:101A40000A6002689207FCD52200D2B20A600168DF
:101A50008907FCD501680906FCD400F063F9286801
:101A600050F01000286000F05DF970BD00E100E06A
:101A700000E400E018ED00E01C38024000000240E5
:101A8000FF03FF3F200002400000505508000240C5
:101A90001800024020380240003001400830014068
:101AA0000C300140613800E041381A288041C00FF5
:101AB0007047A0F161011A2938BF203870470148EA
:101AC000704700007000002062F30F2262F31F4293
:101AD000401810F0030308D0C91A1FD3DB0748BF12
:101AE00000F8012D28BF20F8022D130030B4144651
:101AF0001546103928BF20E93C00FAD8490728BF0D
:101B000020E90C0048BF40F8042D890028BF20F8C8
:101B1000022D48BF00F8012D30BC7047C91818BF0E
:101B200000F8012DCB0728BF00F8012D70474300B6
:101B3000010049B2002909D4012210F01F018A4096
:101B4000674903005BB25B0941F82320704710B47A
:101B5000020052B2002A05D40A01624B040064B2AA
:101B60001A5508E00A01604B040064B214F00F0437
:101B7000234403F8042C10BC704781B05B48016813
:101B800051F001010160006810F001000090009820
:101B900001B070475548016851F002010160544896
:101BA000016831F018010160016851F0080101601D
:101BB000016831F440710160016851F48071016085
:101BC0004C490A6852F010020A60026832F00C02B6
:101BD0000260026852F0040202600A6852F00202D7
:101BE0000A600268920892000260026852F00102E4
:101BF00002600A6852F001020A60026832F4406230
:101C00000260026852F480620260086850F40010BA
:101C10000860704780B53848016851F001010160E3
:101C200036480168890889000160016821F0404157
:101C300001603348016801603248016851F0F001E9
:101C4000016048F2010030490A6802430A602F49E6
:101C50000A6802430A602E490A6852F001020A60CB
:101C60002C490A681043086000210620FFF76FFF27
:101C700000212820FFF76BFF0620FFF759FF2820DF
:101C8000FFF756FF62B601BD1848016851F0010127
:101C900001601A48016831F440310160016851F473
:101CA000003101601C48016831F440310160016875
:101CB00051F44031016019480168090909010160C6
:101CC000016801601648016831F0E0410160016877
:101CD00031F0E0610160016851F08071016070478E
:101CE00000E100E000E400E018ED00E01C380240F4
:101CF0000004024018040240203802400000024064
:101D00000C0001401000014014040140080401408F
:101D10000C0401400004014008000240240002407D
:101D20000838024081B0002000900098B0F5807F14
:101D300003D00098401C0090F7E701B07047000006
:101D400080B53D483D4901605FF4E13141600021CB
:101D500081600021C160002101610C2141610021ED
:101D600081610021C161FFF77FF9002801D000F0F7
:101D70005DFE01BD10B586B004001422002101A84B
:101D800000F056FE20682D49884229D12C48016870
:101D900051F400310160006810F4003000900098A8
:101DA0002848016851F001010160006810F001004D
:101DB000009000980C2001900220029000200390D7
:101DC000032004900720059001A91F4800F03AFE67
:101DD000002200212620FEF79DFF2620FEF7AFFF00
:101DE00006B010BD38B50400134DAC4222D12868AE
:101DF000C06830F010002968C8606420134908707A
:101E00000120134908702800FFF7F9F9002000901D
:101E1000286800680090286840680090009828684A
:101E2000C06850F010002968C86064220949280081
:101E3000FFF7C1F931BD00001C0200200044004042
:101E4000243802401C38024000000240A602002054
:101E5000A90200200000002001480068704700BF70
:101E6000A00200200100002291F82100022806D0E3
:101E700004208863002081F8200001201BE008680E
:101E8000006830F00E000B681860086800684008B1
:101E900040000B681860012091F8403013F01C03DB
:101EA0009840CB6B5860012081F82100002081F818
:101EB00020001000C0B2704738B50400002594F827
:101EC0002100022804D00420A063012005001FE0A7
:101ED0002068006830F00E00216808602068006803
:101EE0004008400021680860012094F8401011F07B
:101EF0001C018840E16B4860012084F8210000202B
:101F000084F82000606B002802D02000616B8847B5
:101F10002800C0B232BD704770477047704700005C
:101F20002DE9FE4F0400002C01D1012081E2DFF8F1
:101F30000898D9F8005015F00C05D9F8006016F48F
:101F400080362078C00761D5082D04D00C2D0CD127
:101F5000B6F5803F09D1DFF8DC070068800355D56E
:101F60006068002852D1012063E26068012806D130
:101F7000DFF8C007016851F48031016025E0606836
:101F800000280AD1DFF8AC07016831F48031016024
:101F9000016831F48021016017E0606805280AD1EA
:101FA000DFF89007016851F480210160016851F465
:101FB0008031016009E0DFF87C07016831F480318D
:101FC0000160016831F480210160606800280ED052
:101FD000FFF742FF0700DFF85C070068800315D4B5
:101FE000FFF73AFFC01B6528F5D3032021E2FFF776
:101FF00033FF0700DFF83C070068800306D5FFF7D2
:102000002BFFC01B6528F5D3032012E22078800740
:102010004CD5042D03D00C2D15D1002E13D1DFF893
:1020200014070068800704D5E068012801D001206A
:10203000FFE1DFF8FC06016831F4F851226951EA4A
:102040000221016032E0E06800281CD00120DFF8A6
:10205000F8160860FFF700FF0700DFF8D8060068F1
:10206000800706D4FFF7F8FEC01B0328F5D3032032
:10207000DFE1DFF8BC06016831F4F851226951EA6A
:102080000221016012E00020DFF8BC160860FFF7B3
:10209000E3FE0700DFF89C060068800706D5FFF71F
:1020A000DBFEC01B0328F5D30320C2E12078C00665
:1020B00040F19880002D5ED1DFF878060068800539
:1020C00004D5A069002801D10120B2E1DFF86086C3
:1020D000D8F8000010F46040216A884216D2206AC5
:1020E00000F0E2FA002801D00120A2E1D8F80010A7
:1020F00031F46041206A0143C8F80010E069D8F863
:10210000001060F31F61C8F8001015E0D8F8001047
:1021100031F46041206A0143C8F80010E069D8F842
:10212000001060F31F61C8F80010206A00F0BCFACC
:10213000002801D001207CE10120216A490B491CC3
:102140008840C003DFF80416D9F80020C2F3031258
:10215000895CC840DFF8E4150860DFF8E405006832
:1021600000F05AFD8DF800009DF80000002839D0DD
:102170009DF800005DE1A069002820D00120DFF873
:10218000D0150860FFF768FE0700DFF8A8050068B3
:10219000800506D4FFF760FEC01B0328F5D303209B
:1021A00047E1DFF88C150A6832F46042206A024386
:1021B0000A60E0690A6860F31F620A6012E00020AA
:1021C000DFF88C150860FFF747FE0700DFF86405AD
:1021D0000068800506D5FFF73FFEC01B0328F5D336
:1021E000032026E12078000728D56069002812D056
:1021F0000120DFF860150860FFF72EFE0700DFF80A
:1022000044050068800719D4FFF726FEC01B032889
:10221000F5D303200DE10020DFF838150860FFF743
:102220001BFE0700DFF81C050068800706D5FFF7D6
:1022300013FEC01B0328F5D30320FAE020784007E3
:1022400040F18F805FF00008DFF80CA5DAF800009D
:10225000C0000DD4DAF8000050F08050CAF8000039
:10226000DAF8000010F080500190019801208046BB
:10227000DFF8E8B4DBF80000C00513D4DBF8000099
:1022800050F48070CBF80000FFF7E6FD0700DBF8A4
:102290000000C00506D4FFF7DFFDC01B6528F6D39C
:1022A0000320C6E0A068012806D1DFF89804016881
:1022B00051F48071016025E0A06800280AD1DFF8A0
:1022C0008404016831F480710160016831F4806137
:1022D000016017E0A06805280AD1DFF868040168EA
:1022E00051F480610160016851F48071016009E07E
:1022F000DFF85004016831F480710160016831F445
:1023000080610160A068002810D0FFF7A5FD0700DC
:10231000DFF830040068800519D4FFF79DFDC01B6D
:1023200041F289318842F3D3032082E0FFF794FD24
:102330000700DFF810040068800508D5FFF78CFD62
:10234000C01B41F289318842F3D3032071E040463B
:10235000C0B2012805D1DAF8000030F08050CAF888
:102360000000606A002863D00C2D48D0606A022803
:1023700032D1DFF8ECB30020CBF80000FFF76CFDA2
:102380008046DFF8B0A3DAF80000800107D5FFF738
:1023900063FDB0EB08000328F3D3032049E0D9F82C
:1023A000001031F47D01A06A0143E06A0143206B13
:1023B0000143C9F800100120CBF80000FFF74CFDE5
:1023C0000700DAF80000800132D4FFF745FDC01B9A
:1023D0000328F6D303202CE00020DFF884130860E4
:1023E000FFF73AFD0700DFF84C03006880011FD5B6
:1023F000FFF732FDC01B0328F5D3032019E0606A04
:10240000012801D1012014E0D9F80000060016F4DB
:102410008030A16A884209D116F47010E16A8842BE
:1024200004D116F44000216B884201D0012000E065
:102430000020BDE8FE8F2DE9F04104000D00002CC6
:1024400001D10120D8E0DFF81C73386810F00100DA
:10245000A84211D2012D03D1386850F00400386031
:1024600038684008400028433860386810F00100A0
:10247000A84201D00120BFE02078800707D5DFF80F
:10248000B8120A6832F0F002A06802430A602078AD
:10249000C00775D56068022806D1DFF89802006889
:1024A00080031CD40120A7E06068032806D1DFF870
:1024B00084020068800112D401209DE06068012838
:1024C00006D1DFF870020068800708D4012093E08D
:1024D000DFF860020068800501D401208CE0DFF89D
:1024E0005882D8F800108908890060680143C8F84C
:1024F0000010FFF7B1FC0600606802280ED1D8F882
:10250000000010F00C0008283AD0FFF7A5FC801B53
:1025100041F289318842F2D303206DE060680328DC
:102520000ED1D8F8000010F00C000C2828D0FFF7CE
:1025300093FC801B41F289318842F2D303205BE097
:10254000606801280ED1D8F8000010F00C000428B3
:1025500016D0FFF781FC801B41F289318842F2D30B
:10256000032049E0D8F8000010F00C0F08D0FFF766
:1025700073FC801B41F289318842F3D303203BE096
:10258000386810F00100854211D2012D03D138685E
:1025900050F0040038603868400840002843386034
:1025A000386810F00100A84201D0012024E0207812
:1025B000400706D560490A6832F4E062E0680243E9
:1025C0000A602078000707D55B48016831F4605144
:1025D000226951EAC201016000F010F85B49564AD5
:1025E0001268C2F30312895CC84054490860544819
:1025F000006800F011FBC0B2BDE8F0812DE9F041A8
:102600004D48066816F00C01042904D0082904D0AE
:102610000C2904D022E054482BE0544829E05449C6
:10262000C6F38342895C0F00C6F38151491C0C003C
:102630000068C00308D54D48A0FB07012200002315
:1026400000F01AFB050007E04748A0FB0701220045
:10265000002300F011FB050028000AE03448006860
:10266000C0F342308046012118F1010011FA00F058
:10267000C003BDE8F08131480068704780B5FFF7BE
:10268000FAFF3C492C4A1268C2F30222895CC84016
:1026900002BD80B5FFF7EFFF3649274A1268C2F343
:1026A000C222895CC84002BD18B401000023224840
:1026B000006810F0F00F23D127480468E40005D526
:1026C0002648006810F4C050020011E0046854F07D
:1026D00080540460046814F080540094009C1F4CE3
:1026E000246814F4C0542200046834F08054046058
:1026F000B2F5C05F04D1B1F5404F01D10120030014
:10270000012B04D11748046854F0040404601548F0
:102710000468640864001C430460006810F0010051
:10272000984201D0012000E0002012BC7047000058
:102730000438024000380240083802406C00002093
:10274000640000203438024000004742003B00088B
:102750002000474280064742243802400070004073
:1027600060004742003C02400024F40000366E0145
:10277000543B0008903B00082DE9F84388B000F076
:1027800093FB00F0A1F800F08FFB00F09DF8FFF73D
:10279000F4F9FFF7D5FA00F099FBFFF7CAF8FFF755
:1027A000FAF8FFF7F7F9FFF735FAFFF76DFAFEF7DA
:1027B000E9FAFEF7D5F8FEF7E5F8884D2868C06815
:1027C00050F010002968C860854E6422310028004E
:1027D000FEF7F1FC0021834800F036FC824F387888
:1027E000002806D0FEF7BCF86420FFF769F8002047
:1027F00038707E4F387800280AD0FDF730FD002869
:1028000004D17B4801783000FEF739FB0020387096
:10281000784F387800281AD0DFF8DC81DFF8DC91B7
:1028200049464046FEF782FB1E2399F8002092B2EB
:1028300041462800FEF753FCFEF72DF8FEF75CF842
:102840006F48016851F480110160002038706D4FAD
:1028500038780028C2D01E2310226B492800FEF7CA
:102860003EFC684669491F22FEF7F6F86846FEF707
:102870009BF9804605220DF105012000FDF7A7FC1C
:10288000641C1E23052262492800FEF728FC1E2333
:102890004246D2B292B269462800FEF720FC414679
:1028A000C9B26846FEF7EBFA40F6C410FFF708F825
:1028B000B4F5FA4F92D1002038701E2312225549E8
:1028C0002800FEF70CFC89E710B592B034210022F5
:1028D00005AC2000FFF7F8F8142100226C46200018
:1028E000FFF7F2F84C480121026861F3CC22026044
:1028F00002200590012008901020099002200E90DF
:1029000000200F905FF4802010905FF48000119001
:1029100005A8FFF705FB002801D000F087F80F207D
:1029200000900320019000200290002003900020DE
:10293000049001216846FFF77EFD002801D000F0D9
:1029400075F812B010BD35480068C00703D50120E6
:102950003349086002E00120314908600120224922
:10296000087028490878002802D10120087001E089
:1029700000200870704700004FF4004028490860AC
:1029800000BF00BF00BF00BF00BF01201949087091
:1029900070470168234A91421ED1234A11780029C9
:1029A0000CD117490B6853F400330B600B6853F0DC
:1029B00001030B601178491C11700DE01178012999
:1029C0000AD10F490B6853F002030B600B6853F4F4
:1029D00080330B6000211170704700001C02002042
:1029E0000000002060020020A7020020A9020020B1
:1029F000A6020020A8020020B8010020AB0200209F
:102A000018040240AA020020983A0008D0390008B1
:102A1000883B0008AC3A00080070004010000240FB
:102A200014040140000C0140AC02002072B6FEE725
:102A300010B5044610460A4601462046FFF744F802
:102A4000204610BDF8B402000B0000240020002531
:102A50001968E140002900F0C68001261F6816FAB7
:102A600004F10F403800002800F0BB80197911F004
:102A70000301012904D0197911F00301022919D1A8
:102A800097685FF0030C61001CFA01FC37EA0C0741
:102A9000D3F80CC061001CFA01FC5CEA07079760E0
:102AA0005168A640B1435E68C6F30016A6403143A4
:102AB0000D005560197911F0030103290AD0D66879
:102AC000032761008F40BE439F6861008F403E43F3
:102AD0003500D560197911F00301022916D12100C2
:102AE000C90802EB8101096A0F26A70017F01C072D
:102AF000BE40B1431E69A70017F01C07BE4031431A
:102B00000D002100C90802EB81010D621668032740
:102B100061008F40BE431F7917F0030761008F40AB
:102B20003E4335001560596811F4403F59D02F4994
:102B30000E6856F001060E60096811F0010100915F
:102B400000992B4E2100890856F821100F275FEAC3
:102B5000840C1CF00C0C17FA0CF7B943254FBA4241
:102B600001D1002514E0244DAA4201D101250FE036
:102B7000224DAA4201D102250AE0214DAA4201D1EB
:102B8000032505E01F4DAA4201D1042500E00525DB
:102B9000A70017F00C07BD4029432500AD0846F8F3
:102BA0002510194E356885435F68FF0300D505433E
:102BB0003560164E316881435F68BF0300D501431D
:102BC0003160134D2E6886435F68FF0200D50643CF
:102BD0002E6010490D6885435F68BF0200D505432C
:102BE0000D60641C34E7F1BC7047000020380240DF
:102BF00008000140000002400004024000080240BA
:102C0000000C024000100240000401400404014096
:102C1000080401400C04014038B5040000251349A4
:102C2000086800281DD04FF47A700968B0FBF1F0F5
:102C30000F490968B1FBF0F0FEF78CF800280DD1C0
:102C4000102C08D2002221005FF0FF30FEF762F85E
:102C50000848046007E00120050004E001200500A9
:102C600001E0012005002800C0B232BD680000204C
:102C70006C00002064000020BBBBE1B1B2F5803FD6
:102C800080F07E80022A1ED98C46B1FBF2F102FB55
:102C900011C31B0443EA1043B3FBF2FC02FB1C33D9
:102CA00080B240EA0343B3FBF2F002FB103240EA89
:102CB0000C4000237047022A05D98446B0FBF2F08D
:102CC00002FB10C270474AB105D100F00102490869
:102CD0005FEA3000704700220023704700F070BCAC
:102CE0000B000200002100207047904271EB030CA2
:102CF000F6D3B3F5803F2FD2F0B5B3FA83F7B1FA2C
:102D000081F4A7F10F0E3D1B5340CEF1200602FACD
:102D10000EF2F3415340B5F10F0746D80F3C2C4457
:102D20004140C4F12006A040F1414140B1FBF3F61F
:102D300003FB1611A2FB0645001BA94102D2761E19
:102D40008018594180EA010221FA0EF362FA0EF26C
:102D500000215A403046F0BD30B4B1FBF3FC03FB18
:102D60001C11A2FB0C45001BA94103D2ACF1010CC4
:102D70008018594130BC02460B466046002170471E
:102D8000B2F1807F65D3F0B5B2FA82F7B1FA81F47F
:102D9000C7F10F063D1B22FA06F307F1110EF241AF
:102DA00020355A40B5F10F07B8D94140C4F120068B
:102DB000A040F1414140B1FBF3FC03FB1C11A2FB1D
:102DC0000C45001BA94103D2BCF1010C80185941EC
:102DD0000F2F12D30F3FC90341EA5041B1FBF3F665
:102DE00003FB1611A2FB0645D4EBC030A94102D269
:102DF000761E8018594146EACC3C07B34140C7F1E2
:102E00002006B840F1414140B1FBF3F603FB161137
:102E1000A2FB0645001BA94102D2761E801859412B
:102E200080EA010221FA0EF3C7F1200462FA0EF2E1
:102E30000CFA07F05A402CFA04F13043F0BD80EA56
:102E4000010221FA0EF3002162FA0EF260465A40A6
:102E5000F0BD8C46B1FBF2F102FB11C31B0243EA49
:102E60001063B3FBF2FC02FB1C331B024CEA002094
:102E700043EA1063B3FBF2FC02FB1C331B024CEA77
:102E8000002043EA1063B3FBF2FC02FB1C331B027D
:102E90004CEA002043EA1063B3FBF2FC02FB1C3255
:102EA0004CEA00200023704710B500240320FDF7F2
:102EB0002BFF0020FFF7B0FE002802D00120040005
:102EC00001E000F07FFB2000C0B210BD10B588B05B
:102ED0001022002104A8FFF7ABFD10220021684654
:102EE000FFF7A6FD2A4C2B48206047F6FF406060A4
:102EF0000020A06040F2F310E0600020206100207C
:102F00006061200000F04AF8002801D0FFF78EFD34
:102F10004FF48050049004A9200000F0EEF900283E
:102F200001D0FFF783FD200000F063F8002801D0F6
:102F3000FFF77CFD0020009042F21070019000200D
:102F400002900020039000226946200000F0A5F9BD
:102F5000002801D0FFF76AFD08B010BD1CB50400C1
:102F600020680C49884211D10B48016851F00801D2
:102F70000160006810F00800009000980022002115
:102F80001A20FDF7C7FE1A20FDF7D9FE13BD000079
:102F900060020020000C01402038024010B50400FF
:102FA000002C01D1012023E094F83900002805D13C
:102FB000002084F838002000FFF7D0FF022084F8BA
:102FC0003900211D206800F00EFA012084F83E002F
:102FD000012084F83A00012084F83B00012084F8A5
:102FE0003C00012084F83D00012084F839000020D5
:102FF00010BD10B50400002C01D1012023E094F88D
:103000003900002805D1002084F83800200000F0A5
:10301000FDFA022084F83900211D206800F0E3F950
:10302000012084F83E00012084F83A00012084F851
:103030003B00012084F83C00012084F83D00012081
:1030400084F83900002010BD70B505000C00002C7C
:1030500002D195F83A000BE0042C02D195F83B0020
:1030600006E0082C02D195F83C0001E095F83D00FF
:10307000012801D001206BE0002C04D1022085F84A
:103080003A00C0B211E0042C04D1022085F83B00C4
:10309000C0B20AE0082C04D1022085F83C00C0B27E
:1030A00003E0022085F83D00C0B22000002806D0D1
:1030B00004280BD0082810D00C2815D01BE0286855
:1030C000C06850F002002968C86014E02868C06831
:1030D00050F004002968C8600DE02868C06850F00E
:1030E00008002968C86006E02868C06850F0100031
:1030F0002968C860FFE701222100286800F04EFA25
:103100002868B0F1804F0ED02868DFF84810884258
:1031100009D02868DFF84010884204D02868DFF81A
:103120003C1088420DD12868806810F00700060026
:10313000062E0CD02868006850F00100296808604D
:1031400005E02868006850F0010029680860002048
:1031500070BD00000004004000080040000801406D
:1031600010B504002068006980071AD52068C0687F
:10317000800716D57FF002002168086101202076C3
:103180002068806910F0030F03D0200000F03FFAA0
:1031900005E02000FFF7FDFB200000F039FA0020D9
:1031A00020762068006940071AD52068C06840076B
:1031B00016D57FF00400216808610220207620687F
:1031C000806910F4407F03D0200000F020FA05E071
:1031D0002000FFF7DEFB200000F01AFA0020207626
:1031E0002068006900071AD52068C068000716D556
:1031F0007FF0080021680861042020762068C069FB
:1032000010F0030F03D0200000F001FA05E02000C9
:10321000FFF7BFFB200000F0FBF9002020762068BC
:103220000069C0061AD52068C068C00616D57FF0B0
:10323000100021680861082020762068C06910F419
:10324000407F03D0200000F0E2F905E02000FFF706
:10325000A0FB200000F0DCF9002020762068006947
:10326000C0070AD52068C068C00706D57FF00100F6
:1032700021680861200000F0CCF920680069400650
:103280000AD52068C068400606D57FF04000216856
:103290000861200000F0BEF910BD70B504000D00FB
:1032A000160094F83800012801D1022024E0012002
:1032B00084F838003000002806D0042809D00828F7
:1032C0000CD00C280FD013E02900206800F0BBF8C8
:1032D0000EE02900206800F0CFF809E029002068FE
:1032E00000F0E5F804E02900206800F0FAF8FFE7B4
:1032F000002084F83800002070BD70B504000D0077
:1033000094F83800012801D102206BE0012084F8F4
:103310003800022084F839002068866836F0770685
:1033200036F47F4620688660286800284ED0102832
:103330004CD020284AD0302848D040283CD05028B3
:1033400026D060282ED0702807D0B0F5805F03D03B
:10335000B0F5005F0FD03EE03DE0EB686A68A96819
:10336000206800F010F92068806850F077000600AF
:10337000206886602FE0EB686A68A968206800F022
:1033800002F92068806850F480402168886022E05B
:10339000EA686968206800F0C9F85021206800F0E8
:1033A000EAF818E0EA686968206800F0D1F860215E
:1033B000206800F0E0F80EE0EA686968206800F034
:1033C000B5F84021206800F0D6F804E029682068AC
:1033D00000F0D1F8FFE7012084F83900002084F8DC
:1033E0003800002070BD0368B0F1804F05D04A4A14
:1033F000904202D0494A904203D133F070034A68A8
:103400001343B0F1804F0ED0434A90420BD0434A51
:10341000904208D0424A904205D0424A904202D09F
:10342000414A904203D133F44073CA68134333F0E6
:1034300080030A69134303608A68C2620A68826271
:1034400001224261704730B4026A5208520002629F
:10345000046A4568836933F070039B089B000A681F
:10346000134334F002048A681443456083614A6858
:103470004263046230BC704730B4026A32F010021A
:103480000262036A4468826932F4E04232F44072B4
:103490000D6852EA052233F020038D6853EA0513C4
:1034A000446082614D688563036230BC704730B40C
:1034B000026A32F480720262046A4568C36933F0BA
:1034C00070039B089B000A68134334F400748A68F5
:1034D00054EA02244560C3614A68C263046230BC96
:1034E000704730B4026A32F480520262036A446860
:1034F000C26932F4E04232F440720D6852EA0522A9
:1035000033F400538D6853EA05334460C2614D685B
:103510000564036230BC70470004004000080040AE
:1035200000080140000C01400010014010B4046A82
:10353000036A5B085B000362836933F0F00353EABC
:10354000021334F00A040C438361046210BC704718
:1035500010B4036A33F0100303628369046A33F41E
:10356000704353EA023334F0A00454EA0114836137
:10357000046210BC7047826832F070020A4352F055
:1035800007028260704710B4846834F47F440C43AF
:10359000144354EA0324846010BC704730B40124FF
:1035A00011F01F0314FA03F3046A9C430462046AD3
:1035B00011F01F0512FA05F52C43046230BC704768
:1035C0007047000081B00F48016851F00041016070
:1035D000016811F00041009100990B490A6852F00E
:1035E00001020A60096811F0010100910099016867
:1035F00051F080510160006810F0805000900098F8
:1036000001B07047243802402038024070477047AC
:1036100070477047704700000D0A2D2D2D2D2D2D60
:103620002D2D2D2D2D2D2D2D2D2D2D2D2D2D0D0A0D
:103630004C495354204F4620434F4D4D414E445327
:103640000D0A202F6175746F202D206175746F73C2
:10365000656E6420636F6465200D0A202F6C6F6FA8
:10366000702058202D20736574206C6F6F7020744B
:103670006F206175746F73656E6420783D312E2EF6
:10368000390D0A202F536574202D2053657420694D
:103690006E20726567283078414229206461746128
:1036A000202830783535292E204578616D706C657D
:1036B0003A2F536574203078414220307835350DEB
:1036C0000A202F52656164202D20526561642066B6
:1036D000726F6D20726567283078414229206461DD
:1036E0007461202830783535292E204578616D7039
:1036F0006C653A2F52656164203078414220307801
:1037000035350D0A202F436F6E666967202D2073B3
:10371000686F772063757272656E74206C6F72616A
:1037200020636F6E6669670D0A202F52657365749A
:1037300053544D720A202F52657365746C6F526139
:10374000202D207265736574204C6F52610D0A2024
:103750002F4657202D2053686F77206669726D774A
:103760006172652076657273696F6E0D0A202F573E
:10377000686F202D20746F20676574206C697374E6
:103780002020494420617661696C61626C65206C1F
:103790006F7261206F6E6C696E65200D0A204D732B
:1037A000672049442074657874202D2073656E6409
:1037B000206D65737361676520746172676574203D
:1037C0004944206C6F72612E204578616D706C6584
:1037D0003A206D736720307831382048656C6C6F03
:1037E000210D0A204D736720302074657874202DD8
:1037F0002073656E64206D65737361676520616C0D
:103800006C20617661696C61626C65206C6F7261BD
:103810002E204578616D706C653A206D736720309D
:103820007830302048656C6C6F210D0A0000000074
:103830004669726D77617265207665722E20302E32
:10384000312E38202830382D30322D323032332985
:1038500020627920442E5A61726574736B692077F7
:1038600069746820616464206175746F20627920D6
:10387000416C65780D0A000030B4002512E050F864
:10388000042BD30744BF4A44521E091F042942F89F
:10389000045BFAD213468C0744BF15809B1CC907F2
:1038A00048BF1D7050F8041B0029E8D130BC704798
:1038B000FEE7FEE7FEE7FEE7FEE77047704770476A
:1038C00080B500F00FF801BD80B50448FFF748FC53
:1038D00001BD80B50248FDF7DBFC01BD60020020A0
:1038E0001C02002003490A680348006882180A6025
:1038F000704700BFA0020020680000205772697462
:103900006520222F48656C702220666F72206C69DA
:103910007374206F6620636F6D6D616E6473200D2C
:103920000A00000010B5074979441831064C7C4460
:10393000163404E00A68081D114488470146A14274
:10394000F8D110BD2C000000480000000D0A496E9F
:10395000207265672030785858206861732062654E
:10396000656E207772697474656E203078585800DF
:1039700009FFFFFFF8010000B80000200000000070
:103980007FD1FFFFBC0200005800000000000020B3
:103990005247424D2C205265642C20477265656E5B
:1039A0002C20426C75652C204D61696E7265640037
:1039B0000D0A526573756C742066726F6D207265A6
:1039C00067203078585820697320307858580000A4
:1039D0004D7367204E3030303030206279204C6F8C
:1039E0005261206677203030303030300D0A0000D0
:1039F00000F00DF8002801D0FFF794FFAFF300802E
:103A00000020AFF30080FEF7B7FE00F002F80120BF
:103A1000704700F001B800000746384600F002F891
:103A2000FBE7000080B5AFF30080024A11001820C8
:103A3000ABBEFBE7260002000D0A417363696920F3
:103A40003220486578204572726F722121210D0A5B
:103A5000000000000548014603B4684680F3098869
:103A6000AFF30080AFF30080FFF7C2FFA5EDF5FED6
:103A70000D0A556E6B6F6E7720636F6D6D616E64AE
:103A80000D0A000052535349203D202D58585864C8
:103A9000426D0D0A0000000053746172742041757C
:103AA000746F53656E640D0A0000000066696E69EC
:103AB0007368206175746F73656E642E0D0A000063
:103AC000536574206C6F6F703D580D0A0000000044
:103AD0002230783030223A22307830302200000014
:103AE0002230783030223A22307830302200000004
:103AF000534E52203D2058585864420D0A00000091
:103B0000000000000000000001020304060708098D
:103B10000148804701480047213B0008553A00080A
:103B20005FF00060014908607047000008ED00E0A8
:103B30002F52454144203058000000002F52455379
:103B400045544C4F524100002F5245534554535455
:103B50004D000000030406080C101820300000007F
:103B60002F48454C500000002F4155544F00000095
:103B70002F4C4F4F502000002F53455420305800F9
:103B80002F434F4E4649470073656E643A0000006C
:103B900000000000010203040D0A00002F46570038
:103BA000FFF7FEBFFFF7FEBFFFF7FEBFFFF7FEBF49
:103BB000FFF7FEBFFFF7FEBFFFF7FEBFFFF7FEBF39
:103BC000FFF7FEBFFFF7FEBFFFF7FEBFFFF7FEBF29
:103BD000FFF7FEBFFFF7FEBFFFF7FEBFFFF7FEBF19
:103BE000FFF7FEBFFFF7FEBFFFF7FEBFFFF7FEBF09
:103BF000FFF7FEBFFFF7FEBFFFF7FEBFFFF7FEBFF9
:103C0000FFF7FEBFFFF7FEBFFFF7FEBFFFF7FEBFE8
:103C1000FFF7FEBFFFF7FEBFFFF7FEBFFFF7FEBFD8
:103C2000FFF7FEBFFFF7FEBFFFF7FEBFFFF7FEBFC8
:103C3000FFF7FEBFFFF7FEBFFFF7FEBFFFF7FEBFB8
:103C4000020102039F000010FD000001FD00086852
:103C5000FF1F002E1B000801ED0003A51A0008F04D
:103C60000003B31A0008F0000001F9000000000092
:0B3C7000000000000000000000000049
:0400000508003A5560
:00000001FF
