:020000040800F2
:10000000700400203D150008191500081B15000894
:100010001D1500081F15000821150008000000002C
:100020000000000000000000000000002315000890
:1000300025150008000000002715000829150008F4
:1000400055150008591500085D15000861150008D0
:100050006515000869150008C11200086D15000833
:100060007115000875150008791500087D15000840
:100070008115000885150008891500088D150008F0
:100080009115000895150008991500089D150008A0
:10009000A1150008A5150008A9150008AD15000850
:1000A00000000000B1150008B5150008B9150008DA
:1000B000BD150008C1150008C5150008C9150008C0
:1000C000CD150008D1150008D5150008D915000870
:1000D000DD150008E1150008E5150008E915000820
:1000E000ED150008F1150008F5150008F9150008D0
:1000F000FD1500082DE9FC47040041D0DFF8F0654C
:10010000D6F80880B5682078C10708F00C0805F417
:1001100080350ED5B8F1080F05D0B8F10C0F08BF27
:10012000B5F5803F42D13068810302D56068002870
:1001300026D02078DFF8C875810714D5B8F1040FF0
:1001400004D0B8F10C0F08BF002D66D130688107CC
:1001500002D5E06801281ED17068216920F4F850AA
:1001600040EA012070602078C10640F1AD80B8F10E
:10017000000F40F092803068810503D5A069002807
:1001800000F07F81206A716801F46041814261D290
:1001900000F075FA002840F074817168206A21F43B
:1001A00060410143716000F072F95EE0606801280F
:1001B00004D1306840F48030306013E008B9306812
:1001C00009E00528306806D140F4802030603168AD
:1001D00041F4803105E020F480303060316821F452
:1001E00080213160606860B100F09EFA0746306897
:1001F00081039ED400F098FAC01B6528F7D3032032
:1002000042E100F091FA07463068810391D500F091
:100210008BFAC01B6528F7D3F1E7E06868B10121CC
:10022000396000F081FA05463068810794D400F007
:100230007BFA401B0228F7D9E1E7386000F074FA36
:100240000546316888078ED500F06EFA401B0228FB
:10025000F7D9D4E7716821F46041084300F016F93A
:10026000206A00F00CFA002895D1216AB268490B87
:10027000C2F303120120491C8840DFF88814DFF81C
:100280007434895CC003C8401860DFF870040068EB
:1002900000F050FA010017D0F6E0A06948B3012140
:1002A000396200F041FA05463068810505D400F056
:1002B0003BFA401B0228F7D9A1E77068216A20F4B5
:1002C0006040084300F0E2F8207801072BD5606910
:1002D000DFF83414D0B101220A6000F025FA054697
:1002E000706B81071FD400F01FFA401B0228F7D95A
:1002F00085E7386200F018FA054630688105E3D5D5
:1003000000F012FA401B0228F7D978E7086000F0E5
:100310000BFA0546706B810705D500F005FA401B06
:100320000228F7D96BE72078410761D5706A00256C
:10033000C10009D4706A40F0805070620125706A73
:1003400000F0805000900098DFF8C093D9F80000CA
:10035000C10513D4D9F8000040F48070C9F800003A
:1003600000F0E2F98246D9F80000C10506D400F099
:10037000DBF9A0EB0A006528F5D340E7A068012867
:1003800008D008B9706B09E00528706B06D140F4FD
:1003900080607063706B40F4807005E020F48070C2
:1003A0007063706B20F48060706341F28939A068DB
:1003B00060B100F0B9F98246706B810513D400F08A
:1003C000B3F9A0EB0A004845F6D318E700F0ACF902
:1003D0008246706B810506D500F0A6F9A0EB0A00F5
:1003E0004845F6D30BE71DB1706A20F0805070626B
:1003F000606A002847D0B8F10C0F30D0022822D113
:1004000000F04BF805463068810105D500F08CF905
:10041000401B0228F7D9F2E6B068A16AE26A20F42C
:100420007D000843216B10430843B060012000F0B9
:1004300035F804463068810125D400F075F9001BB9
:100440000228F7D9DBE600F028F80446306881017D
:1004500019D500F069F9001B0228F7D9CFE6012869
:100460000FD0B068A26A00F48031914202BF00F45C
:100470007011E26A914202BF00F44000216B884291
:1004800001D0012000E00020BDE8F6877060E0693F
:10049000716860F31F61716070470020386600F07A
:1004A00043B92DE9F843040089466FD0DFF8606254
:1004B000306800F00100484502D200F08EF865D1A6
:1004C0002078DFF82C52810705D5AA68A06822F0B1
:1004D000F0020243AA602178C8074FD5606802285D
:1004E00002D129688A0308E0032802D129688A0119
:1004F00003E00128296802D18A0702D446E08A0570
:1005000044D5A968890840EA8100A86041F2893889
:1005100000F00AF90746606802280BD1A86800F0CD
:100520000C0008282AD000F0FFF8C01B4045F5D386
:10053000032050E003280AD1A86800F00C000C2822
:100540001CD000F0F1F8C01B4045F5D3F0E70128BE
:100550000AD1A86800F00C0004280FD000F0E4F8DD
:10056000C01B4045F5D3E3E7A86810F00C0F05D099
:1005700000F0DAF8C01B4045F6D3D9E7306800F048
:100580000100814504D200F028F801D0012022E0CA
:100590002078410705D5AA68E06822F4E0620243AA
:1005A000AA602178080706D5A968206921F460515E
:1005B00041EAC001A96000F021F8AA6851494D4BF9
:1005C000C2F30312895CC8401860BDE8F2434B488F
:1005D000006800F0AFB8BDE8F283B9F1010F03D1B4
:1005E000306840F0040030603168490849EA410150
:1005F0003160306800F001004845704730B546482A
:10060000416801F00C02042A04D0082A04D00C2A04
:1006100004D018E0384830BD404830BD404AC1F3EE
:100620008343D45C4068C1F38152521C0023C5034C
:1006300047BF3A48A0FB04012F4DA5FB0401BDE8CC
:10064000304000F099B80068400B00F0070001212D
:10065000401C01FA00F0C00330BD26482D4A006856
:1006600013683049C3F3022206E02248294A006891
:1006700013682C49C3F3C222895CC840704778B51F
:10068000244B23491C68002214F0F00F22D1DD69AD
:100690001E4CEE0003D5246804F4C0540FE0DD695D
:1006A00045F08055DD61DD6905F080550095009DC0
:1006B0002468DD6925F0805504F4C054DD61B4F58B
:1006C000C05F08BFB0F5404F04D10122086840F078
:1006D000040008600B685B0842EA43030B6008688B
:1006E00000F00100904201D0012072BD002072BDD7
:1006F00000380240140000200024F4000C00002008
:100700000000474240140008800647420070004045
:10071000003C0240083802400438024000366E01B6
:10072000341400084C15000801480068704700BFE9
:100730000800002070B50E4E0446B0680025A0B138
:100740004FF47A710B4AB1FBF0F11068B0FBF1F095
:1007500000F0E1F848B9102C07D2002221464FF0F2
:10076000FF3000F0BBF8746000E00125284670BD42
:100770000800002014000020D3BBD9B1B2F5803F9F
:100780005BD2022A1ED98C46B1FBF2F102FB11C3E7
:100790001B0443EA1043B3FBF2FC02FB1C3380B2A0
:1007A00040EA0343B3FBF2F002FB103240EA0C4094
:1007B00000237047022A05D98446B0FBF2F002FB01
:1007C00010C270474AB105D100F0010249085FEA42
:1007D0003000704700220023704700F0BBB80B00C8
:1007E0000200002100207047F7D300220023704749
:1007F000904271EB030CF2D370B5B1FA81F4B3FA05
:1008000083F52C1BA340C4F1200532FA05F63343CF
:10081000A2405FF00046E64002E05B085FEA320279
:10082000841A71EB030524BF204629467641F4D390
:1008300002000B003000002170BD70B5B1FA81F4E8
:10084000B2FA82F5C4F120046419B4F12006DAD3B7
:10085000B2405FF00044F440002502E052085FEA35
:100860003303C61A71EB020E24BF30467146644151
:100870006D41F3D302000B002000290070BD0EE093
:1008800002684368024408305FEAC37C44BF4B44BB
:100890005B1E52F804CB43F804CB091FF9D150F882
:1008A000041B0029ECD170470901020002D424483E
:1008B00081547047234B02F00F021A4402F8041CC3
:1008C0007047214B19684FF6FF020002114000F4F7
:1008D000E06008431D4908431860704770B51A4B23
:1008E0001C68C4F302230124C3F10705052D2EBFA4
:1008F0000F2504FA05F56D1E1E1D072E34BF0023BB
:10090000DB1E2940994004FA03F3BDE870405B1EEA
:100910001A401143C8E710B5401EB0F1807F01D3E3
:10092000012010BD0A4C60600F214FF0FF30FFF72F
:10093000BBFF0021A16007202060002010BD000047
:1009400000E400E018ED00E00CED00E00000FA0526
:1009500010E000E07047000010B500F014F94220EC
:1009600000F0B0F91228954C57D1206840F480303F
:10097000206000F055FA206840F0010020608021DE
:10098000012000F0CDF900210E2000F0C9F900216E
:100990000F2000F0C5F923210C2000F0C1F98421BB
:1009A0004D2000F0BDF92B210B2000F0B9F9FF21FB
:1009B000092000F0B5F9D921062000F0B1F9002195
:1009C000072000F0ADF90021082000F0A9F900F09F
:1009D0007DF887214D2000F0A3F93B210B2000F08A
:1009E0009FF98F21092000F09BF998211D2000F02C
:1009F00097F9C0211E2000F093F90421262000F071
:100A00008FF900F019F800F05DF800F05FF800F0E1
:100A100055F8BDE8104085214DE0206840F4801075
:100A200000F006F8206840F0100000F001F8F4E74C
:100A30002060C82000F000BA0021402000F070B90A
:100A400038B54021FFF7F9FF00F040F800F03AF820
:100A500000F034F80721222000F062F90024584DFC
:100A6000E0B2641C295C002000F05AF9E0B20728CB
:100A7000F6D30721222000F053F98321012000F052
:100A80004FF94E4C03E0206840F400302060122003
:100A900000F018F90028F6D00821122000F040F9E3
:100AA0004FF4967000F0C8F9206840F00200206012
:100AB0008021BDE83440012000F032B900210D2032
:100AC00000F02EB91221392000F02AB9812101202D
:100AD00000F026B938B500208DF80000394C08E048
:100AE0009DF80010002060549DF80000401C8DF817
:100AF00000009DF800001028F2DBFFF7E7FFFFF78A
:100B00009BFFFFF7DFFFFFF7D9FF8521012000F0F2
:100B100007F941F2883000F08FF92B4801680A0488
:100B20002FD5FFF786FF5021122000F0F9F8FFF7CC
:100B3000C9FF224D286840F0200028604FF49670CD
:100B400000F07AF9286840F400102860002513208E
:100B500000F0B8F81A2000F0B5F8192000F0B2F84B
:100B600005E0002000F0AEF8E9B26D1C60541320DF
:100B700000F0A8F8E9B28142F3D3FFF7A7FF20788D
:100B800032BD402032BD10B5104C206820F00C0062
:100B900020600120216841F004012160A26942F433
:100BA0000032A26100F048F9A06940F00200A061A3
:100BB0000A20BDE8104000F03FB9000018040240D0
:100BC000000000205C0000201000024000000240F5
:100BD000010007D4012200F01F01824B8A40400926
:100BE00043F8202070470901020002D47E48815456
:100BF00070477E4B02F00F021A4402F8041C704743
:100C000010B57B497B4A086840F001000860136812
:100C10007948034013601468784844F42844146009
:100C2000136A03431362936823F47F3393609068DD
:100C300040F47F309060136823F4407313601068B1
:100C400040F480701060936823F440739360906860
:100C500040F440709060906940F0100090614868E6
:100C600040F00100486011686548890889001160FA
:100C700001210268026001226248416182600168CC
:100C800041F00101016006200021FFF7ACFF0620C2
:100C9000FFF79EFF62B610BD80B55B48016841F466
:100CA000805101604FF44D7258480260016841F074
:100CB0004001016023200021FFF795FF54480821DF
:100CC000016001BD38B5544C0546206840F48010E1
:100CD000206000F0A5F800F00EF8456000F010F874
:100CE000456800F09DF8206840F01000206000F09A
:100CF00097F8E8B232BD474801688A07FCD57047CB
:100D000001688A07FCD501680A06FCD4002141600D
:100D10000268D107FCD542680168CA07FCD5704754
:100D200070B500F018F8FFF7E6FF46F08006466061
:100D300001688A07FCD5446001688A07FCD5016810
:100D40000A06FCD400F06CF8286840F01000286017
:100D5000BDE8704064E0304D0646286840F48010DD
:100D600028600C465CE02248016841F00201016005
:100D70002A48026822F018020260016841F0080166
:100D80000160026822F440720260016841F48071DF
:100D90000160826942F010028261016821F00C0159
:100DA0000160026842F004020260816941F00201C0
:100DB00081610268920892000260016841F00101BD
:100DC0000160826942F001028261016821F44061A0
:100DD0000160026842F480620260816941F400119E
:100DE0008161704700E100E000E400E018ED00E000
:100DF0001C38024000000240FF03FF3F0000505536
:100E00000C00014000040140203802400030014045
:100E100004E100E0083001401800024000040240F4
:100E200081B0002001E00098401C00900098B0F5CF
:100E3000807FF8D101B0704738B50446FFF774FCE5
:100E400014F1010F054602D0044988680419FFF720
:100E50006BFC401BA042FAD331BD00BF080000204C
:100E60002DE9F84F00276B4A6B4B4FF00F080546F2
:100E70000E4638E0694CA54214BF052404248C407A
:100E8000674944EA0E0441F82C40C143D2F800C03F
:100E9000746801EA0C0CE40348BF40EA0C0CC2F889
:100EA00000C0D2F804C0746801EA0C0CA40348BF67
:100EB00040EA0C0CC2F804C0D2F808C0746801EA19
:100EC0000C0CE40248BF40EA0C0CC2F808C0D2F88F
:100ED0000CC001EA0C0C7168890248BF40EA0C0C96
:100EE000C2F80CC07F1C316831FA07F000F08F8027
:100EF0000124BC4014EA0100F4D04FEA470C03215E
:100F000001FA0CF16FEA010E716801F00309B9F101
:100F1000010F1CBF01F00301022912D1A968D6F804
:100F20000C900EEA010109FA0CF949EA0101A960E5
:100F3000696821EA04047168C1F30011B9400C43E7
:100F40006C60B900347904F00304032C21D0EC6800
:100F5000D6F808900EEA040409FA0CF949EA0404E8
:100F6000EC60347904F00304022C12D1FC0805EB88
:100F7000840401F01C09D4F820A008FA09FB2AEA2D
:100F80000B0AD6F810B00BFA09F949EA0A09C4F8B5
:100F900020902C680EEA040E347904F0030404FA5D
:100FA0000CF444EA0E0CC5F800C0746814F4403F19
:100FB00098D0D3F800C01A4C4CF0010CC3F800C014
:100FC0004FEA970CD3F800E00EF0010ECDF800E0E8
:100FD00001F00C01DDF800E054F82C4008FA01FEA5
:100FE00024EA0E0E0F4CA54208BF00240ED00E4C72
:100FF000A54208BF012409D00C4CA54208BF022419
:1010000004D00B4CA5427FF435AF032437E7BDE88D
:10101000F18F00000004014020380240001002401F
:1010200008000140000002400004024000080240A5
:10103000000C024038B5040001D1012032BD00F09F
:1010400028F808B900F016F800F019F800F025F8B3
:10105000FFE7416100F001F832BD2068C16841F44A
:101060000051C16000206860202169702020A870B4
:101070000020704700212970204600F08AB8242003
:1010800068702068C16821F40051C160204600F0FA
:101090000EB804F13C05687870472068016921F4B6
:1010A000904101612068416921F02A01704710B523
:1010B000044622681169E06821F44051014311613E
:1010C000D3682248A168034020690B436169034348
:1010D000E0690B430343D3605169A06921F4407177
:1010E000014351611A498A4202D1FFF7BEFA01E079
:1010F000FFF7B3FA63682268E46919214843B4F53D
:10110000004F6FF063010FD15B0000F023F8C900BE
:1011100032316420B1FBF0F0410001F4F87101EBD1
:10112000031100F007000DE09B0000F013F8090127
:1011300032316420B1FBF0F000F0F00101EB03115B
:1011400000F00F004018906010BD0000F369FFFF31
:1011500000380140B0FBF3F06423B0FBF3F301FB74
:101160000301704780B52248224901604FF4E13203
:1011700000230C2142608360C3600361416183618D
:10118000C361FFF757FF18B1BDE8014000F0ACB8EC
:1011900001BD10B586B004461422002101A800F05C
:1011A000A5F821681348814220D11348816841F491
:1011B00000318160816801F400310091009902687A
:1011C00042F0010202600C21006800F00100009072
:1011D0000222009809480191029200210391032202
:1011E00007210591049201A9FFF73AFE06B010BD50
:1011F00018000020004400401C380240000002405B
:1012000038B500F07DF800F024F8FFF7F9FCFFF79F
:1012100043FDFFF7A8FDFFF79FFB00F071F800F01A
:1012200018F800F07DF8FFF79DFF2B4C2B4D287828
:10123000012805D1FFF704FC002001212870697006
:10124000FFF748FC4828F2D1206840F48030206045
:10125000EDE780B592B03422002105A800F046F8F1
:1012600014220021684600F041F81D48026801215F
:1012700061F3CC2202600891102209920220002220
:101280000F9205900E904FF480214FF48002109140
:10129000119205A8FEF72EFF08B172B6FEE70F20E7
:1012A00003210090019100220292039204920121F5
:1012B0006846FFF7F6F808B172B6FEE713B000BD56
:1012C00001200849086000BF00BF00BF00BF00BF89
:1012D000024B187070470000180402406C00002098
:1012E000007000401404014072B6FEE710B50446D9
:1012F00010460A460146204600F022F8204610BD5E
:10130000032010B5FFF7DDFA0020FFF713FA0024E1
:10131000002814BF012400F047F8204610BD00004B
:10132000064881B0016841F001010160006800F0E9
:1013300001000090009801B0704700BF1C380240C7
:1013400062F30F2262F31F42401810F0030308D02B
:10135000C91A1FD3DB0748BF00F8012D28BF20F8AA
:10136000022D130030B414461546103928BF20E969
:101370003C00FAD8490728BF20E90C0048BF40F8D4
:10138000042D890028BF20F8022D48BF00F8012D48
:1013900030BC7047C91818BF00F8012DCB0728BF13
:1013A00000F8012D704700000F4881B0416841F0FE
:1013B00000414160416801F00041009100990268DC
:1013C00042F001020260036803F0010300930099F8
:1013D000426842F080524260406800F080500090C5
:1013E000009801B0704700BF2038024030B400259B
:1013F00012E050F8042BD30744BF4A44521E091F81
:10140000042942F8045BFAD213468C0744BF1580C6
:101410009B1CC90748BF1D7050F8041B0029E8D168
:1014200030BC704702494FF0006008607047000010
:1014300008ED00E0030406080C101820300000003E
:101440000000000000000000010203040607080974
:1014500010B5074979441831064C7C44163404E031
:101460000A68081D114488470146A142F8D110BD01
:10147000080000002800000075FFFFFF5800000072
:101480001800002000000000F7F3FFFF1800000024
:1014900070000000000000200000000000F00DF8C7
:1014A000002801D0FFF7D4FFAFF300800020AFF396
:1014B0000080FFF7A5FE00F002F80120704700F061
:1014C00001B800000746384600F002F8FBE70000CC
:1014D00080B5AFF30080024A11001820ABBEFBE7D5
:1014E000260002000548014603B4684680F30988D7
:1014F000AFF30080AFF30080FFF7D0FFA5EDF5FE5E
:1015000048656C6C6F2100000000000010000000B6
:101510000100000068FF1F00FEE7FEE7FEE7FEE7B0
:10152000FEE770477047704700F000B802490A684C
:10153000886882180A6070470800002001488047C8
:101540000148004725140008E514000800000000C9
:1015500001020304FFF7FEBFFFF7FEBFFFF7FEBF68
:10156000FFF7FEBFFFF7FEBFFFF7FEBFFFF7FEBFAF
:10157000FFF7FEBFFFF7FEBFFFF7FEBFFFF7FEBF9F
:10158000FFF7FEBFFFF7FEBFFFF7FEBFFFF7FEBF8F
:10159000FFF7FEBFFFF7FEBFFFF7FEBFFFF7FEBF7F
:1015A000FFF7FEBFFFF7FEBFFFF7FEBFFFF7FEBF6F
:1015B000FFF7FEBFFFF7FEBFFFF7FEBFFFF7FEBF5F
:1015C000FFF7FEBFFFF7FEBFFFF7FEBFFFF7FEBF4F
:1015D000FFF7FEBFFFF7FEBFFFF7FEBFFFF7FEBF3F
:1015E000FFF7FEBFFFF7FEBFFFF7FEBFFFF7FEBF2F
:1015F000FFF7FEBFFFF7FEBFFFF7FEBFFFF7FEBF1F
:04000005080014E5F6
:00000001FF
